{"abi":[{"anonymous":false,"inputs":[{"indexed":false,"internalType":"string","name":"s","type":"string"}],"name":"Verified","type":"event"},{"inputs":[{"components":[{"components":[{"internalType":"uint256","name":"X","type":"uint256"},{"internalType":"uint256","name":"Y","type":"uint256"}],"internalType":"struct Pairing.G1Point","name":"a","type":"tuple"},{"components":[{"internalType":"uint256[2]","name":"X","type":"uint256[2]"},{"internalType":"uint256[2]","name":"Y","type":"uint256[2]"}],"internalType":"struct Pairing.G2Point","name":"b","type":"tuple"},{"components":[{"internalType":"uint256","name":"X","type":"uint256"},{"internalType":"uint256","name":"Y","type":"uint256"}],"internalType":"struct Pairing.G1Point","name":"c","type":"tuple"}],"internalType":"struct Verifier.Proof","name":"proof","type":"tuple"},{"internalType":"uint256[1]","name":"input","type":"uint256[1]"}],"name":"verifyTx","outputs":[{"internalType":"bool","name":"r","type":"bool"}],"stateMutability":"nonpayable","type":"function"}],"devdoc":{"methods":{}},"evm":{"assembly":"    /* \"verifier.sol\":20802:24314  contract Verifier {... */\n  mstore(0x40, 0x80)\n  callvalue\n    /* \"--CODEGEN--\":8:17   */\n  dup1\n    /* \"--CODEGEN--\":5:7   */\n  iszero\n  tag_1\n  jumpi\n    /* \"--CODEGEN--\":30:31   */\n  0x00\n    /* \"--CODEGEN--\":27:28   */\n  dup1\n    /* \"--CODEGEN--\":20:32   */\n  revert\n    /* \"--CODEGEN--\":5:7   */\ntag_1:\n    /* \"verifier.sol\":20802:24314  contract Verifier {... */\n  pop\n  dataSize(sub_0)\n  dup1\n  dataOffset(sub_0)\n  0x00\n  codecopy\n  0x00\n  return\nstop\n\nsub_0: assembly {\n        /* \"verifier.sol\":20802:24314  contract Verifier {... */\n      mstore(0x40, 0x80)\n      callvalue\n        /* \"--CODEGEN--\":8:17   */\n      dup1\n        /* \"--CODEGEN--\":5:7   */\n      iszero\n      tag_1\n      jumpi\n        /* \"--CODEGEN--\":30:31   */\n      0x00\n        /* \"--CODEGEN--\":27:28   */\n      dup1\n        /* \"--CODEGEN--\":20:32   */\n      revert\n        /* \"--CODEGEN--\":5:7   */\n    tag_1:\n        /* \"verifier.sol\":20802:24314  contract Verifier {... */\n      pop\n      jumpi(tag_2, lt(calldatasize, 0x04))\n      shr(0xe0, calldataload(0x00))\n      dup1\n      0xf48d7729\n      eq\n      tag_3\n      jumpi\n    tag_2:\n      0x00\n      dup1\n      revert\n        /* \"verifier.sol\":23838:24312  function verifyTx(... */\n    tag_3:\n      tag_4\n      0x04\n      dup1\n      calldatasize\n      sub\n      tag_5\n      swap2\n      swap1\n      dup2\n      add\n      swap1\n      jump(tag_6)\n    tag_5:\n      tag_7\n      jump\t// in\n    tag_4:\n      mload(0x40)\n      tag_8\n      swap2\n      swap1\n      jump(tag_9)\n    tag_8:\n      mload(0x40)\n      dup1\n      swap2\n      sub\n      swap1\n      return\n    tag_7:\n        /* \"verifier.sol\":23948:23954  bool r */\n      0x00\n        /* \"verifier.sol\":23966:23991  uint[] memory inputValues */\n      0x60\n        /* \"verifier.sol\":24005:24017  input.length */\n      0x01\n        /* \"verifier.sol\":23994:24018  new uint[](input.length) */\n      mload(0x40)\n      swap1\n      dup1\n      dup3\n      mstore\n      dup1\n      0x20\n      mul\n      0x20\n      add\n      dup3\n      add\n      0x40\n      mstore\n      dup1\n      iszero\n      tag_11\n      jumpi\n      dup2\n      0x20\n      add\n        /* \"--CODEGEN--\":29:31   */\n      0x20\n        /* \"--CODEGEN--\":21:27   */\n      dup3\n        /* \"--CODEGEN--\":17:32   */\n      mul\n        /* \"--CODEGEN--\":117:121   */\n      dup1\n        /* \"--CODEGEN--\":105:115   */\n      codesize\n        /* \"--CODEGEN--\":97:103   */\n      dup4\n        /* \"--CODEGEN--\":88:122   */\n      codecopy\n        /* \"--CODEGEN--\":148:152   */\n      dup1\n        /* \"--CODEGEN--\":140:146   */\n      dup3\n        /* \"--CODEGEN--\":136:153   */\n      add\n        /* \"--CODEGEN--\":126:153   */\n      swap2\n      pop\n        /* \"--CODEGEN--\":0:157   */\n      pop\n        /* \"verifier.sol\":23994:24018  new uint[](input.length) */\n      swap1\n      pop\n    tag_11:\n      pop\n        /* \"verifier.sol\":23966:24018  uint[] memory inputValues = new uint[](input.length) */\n      swap1\n      pop\n        /* \"verifier.sol\":24032:24038  uint i */\n      0x00\n        /* \"verifier.sol\":24041:24042  0 */\n      dup1\n        /* \"verifier.sol\":24032:24042  uint i = 0 */\n      swap1\n      pop\n        /* \"verifier.sol\":24028:24116  for(uint i = 0; i < input.length; i++){... */\n    tag_12:\n        /* \"verifier.sol\":24048:24060  input.length */\n      0x01\n        /* \"verifier.sol\":24044:24045  i */\n      dup2\n        /* \"verifier.sol\":24044:24060  i < input.length */\n      lt\n        /* \"verifier.sol\":24028:24116  for(uint i = 0; i < input.length; i++){... */\n      iszero\n      tag_13\n      jumpi\n        /* \"verifier.sol\":24097:24102  input */\n      dup4\n        /* \"verifier.sol\":24103:24104  i */\n      dup2\n        /* \"verifier.sol\":24097:24105  input[i] */\n      0x01\n      dup2\n      lt\n      tag_15\n      jumpi\n      invalid\n    tag_15:\n      0x20\n      mul\n      add\n      mload\n        /* \"verifier.sol\":24080:24091  inputValues */\n      dup3\n        /* \"verifier.sol\":24092:24093  i */\n      dup3\n        /* \"verifier.sol\":24080:24094  inputValues[i] */\n      dup2\n      mload\n      dup2\n      lt\n      tag_16\n      jumpi\n      invalid\n    tag_16:\n      0x20\n      mul\n      0x20\n      add\n      add\n        /* \"verifier.sol\":24080:24105  inputValues[i] = input[i] */\n      dup2\n      dup2\n      mstore\n      pop\n      pop\n        /* \"verifier.sol\":24062:24065  i++ */\n      dup1\n      dup1\n      0x01\n      add\n      swap2\n      pop\n      pop\n        /* \"verifier.sol\":24028:24116  for(uint i = 0; i < input.length; i++){... */\n      jump(tag_12)\n    tag_13:\n      pop\n        /* \"verifier.sol\":24159:24160  0 */\n      0x00\n        /* \"verifier.sol\":24129:24155  verify(inputValues, proof) */\n      tag_17\n        /* \"verifier.sol\":24136:24147  inputValues */\n      dup3\n        /* \"verifier.sol\":24149:24154  proof */\n      dup7\n        /* \"verifier.sol\":24129:24135  verify */\n      tag_18\n        /* \"verifier.sol\":24129:24155  verify(inputValues, proof) */\n      jump\t// in\n    tag_17:\n        /* \"verifier.sol\":24129:24160  verify(inputValues, proof) == 0 */\n      eq\n        /* \"verifier.sol\":24125:24306  if (verify(inputValues, proof) == 0) {... */\n      iszero\n      tag_19\n      jumpi\n        /* \"verifier.sol\":24181:24227  Verified(\"Transaction successfully verified.\") */\n      0x3f3cfdb26fb5f9f1786ab4f1a1f9cd4c0b5e726cbdfc26e495261731aad44e39\n      mload(0x40)\n      tag_20\n      swap1\n      jump(tag_21)\n    tag_20:\n      mload(0x40)\n      dup1\n      swap2\n      sub\n      swap1\n      log1\n        /* \"verifier.sol\":24248:24252  true */\n      0x01\n        /* \"verifier.sol\":24241:24252  return true */\n      swap2\n      pop\n      pop\n      jump(tag_10)\n        /* \"verifier.sol\":24125:24306  if (verify(inputValues, proof) == 0) {... */\n    tag_19:\n        /* \"verifier.sol\":24290:24295  false */\n      0x00\n        /* \"verifier.sol\":24283:24295  return false */\n      swap2\n      pop\n      pop\n        /* \"verifier.sol\":23838:24312  function verifyTx(... */\n    tag_10:\n      swap3\n      swap2\n      pop\n      pop\n      jump\t// out\n        /* \"verifier.sol\":22894:23803  function verify(uint[] memory input, Proof memory proof) internal returns (uint) {... */\n    tag_18:\n        /* \"verifier.sol\":22969:22973  uint */\n      0x00\n        /* \"verifier.sol\":22985:23011  uint256 snark_scalar_field */\n      dup1\n        /* \"verifier.sol\":23014:23091  21888242871839275222246405745257275088548364400416034343698204186575808495617 */\n      0x30644e72e131a029b85045b68181585d2833e84879b9709143e1f593f0000001\n        /* \"verifier.sol\":22985:23091  uint256 snark_scalar_field = 21888242871839275222246405745257275088548364400416034343698204186575808495617 */\n      swap1\n      pop\n        /* \"verifier.sol\":23101:23123  VerifyingKey memory vk */\n      tag_24\n      tag_25\n      jump\t// in\n    tag_24:\n        /* \"verifier.sol\":23126:23140  verifyingKey() */\n      tag_26\n        /* \"verifier.sol\":23126:23138  verifyingKey */\n      tag_27\n        /* \"verifier.sol\":23126:23140  verifyingKey() */\n      jump\t// in\n    tag_26:\n        /* \"verifier.sol\":23101:23140  VerifyingKey memory vk = verifyingKey() */\n      swap1\n      pop\n        /* \"verifier.sol\":23178:23180  vk */\n      dup1\n        /* \"verifier.sol\":23178:23190  vk.gamma_abc */\n      0x80\n      add\n      mload\n        /* \"verifier.sol\":23178:23197  vk.gamma_abc.length */\n      mload\n        /* \"verifier.sol\":23173:23174  1 */\n      0x01\n        /* \"verifier.sol\":23158:23163  input */\n      dup7\n        /* \"verifier.sol\":23158:23170  input.length */\n      mload\n        /* \"verifier.sol\":23158:23174  input.length + 1 */\n      add\n        /* \"verifier.sol\":23158:23197  input.length + 1 == vk.gamma_abc.length */\n      eq\n        /* \"verifier.sol\":23150:23198  require(input.length + 1 == vk.gamma_abc.length) */\n      tag_28\n      jumpi\n      0x00\n      dup1\n      revert\n    tag_28:\n        /* \"verifier.sol\":23255:23282  Pairing.G1Point memory vk_x */\n      tag_29\n      tag_30\n      jump\t// in\n    tag_29:\n        /* \"verifier.sol\":23285:23306  Pairing.G1Point(0, 0) */\n      mload(0x40)\n      dup1\n      0x40\n      add\n      0x40\n      mstore\n      dup1\n        /* \"verifier.sol\":23301:23302  0 */\n      0x00\n        /* \"verifier.sol\":23285:23306  Pairing.G1Point(0, 0) */\n      dup2\n      mstore\n      0x20\n      add\n        /* \"verifier.sol\":23304:23305  0 */\n      0x00\n        /* \"verifier.sol\":23285:23306  Pairing.G1Point(0, 0) */\n      dup2\n      mstore\n      pop\n        /* \"verifier.sol\":23255:23306  Pairing.G1Point memory vk_x = Pairing.G1Point(0, 0) */\n      swap1\n      pop\n        /* \"verifier.sol\":23321:23327  uint i */\n      0x00\n        /* \"verifier.sol\":23330:23331  0 */\n      dup1\n        /* \"verifier.sol\":23321:23331  uint i = 0 */\n      swap1\n      pop\n        /* \"verifier.sol\":23316:23513  for (uint i = 0; i < input.length; i++) {... */\n    tag_31:\n        /* \"verifier.sol\":23337:23342  input */\n      dup7\n        /* \"verifier.sol\":23337:23349  input.length */\n      mload\n        /* \"verifier.sol\":23333:23334  i */\n      dup2\n        /* \"verifier.sol\":23333:23349  i < input.length */\n      lt\n        /* \"verifier.sol\":23316:23513  for (uint i = 0; i < input.length; i++) {... */\n      iszero\n      tag_32\n      jumpi\n        /* \"verifier.sol\":23389:23407  snark_scalar_field */\n      dup4\n        /* \"verifier.sol\":23378:23383  input */\n      dup8\n        /* \"verifier.sol\":23384:23385  i */\n      dup3\n        /* \"verifier.sol\":23378:23386  input[i] */\n      dup2\n      mload\n      dup2\n      lt\n      tag_34\n      jumpi\n      invalid\n    tag_34:\n      0x20\n      mul\n      0x20\n      add\n      add\n      mload\n        /* \"verifier.sol\":23378:23407  input[i] < snark_scalar_field */\n      lt\n        /* \"verifier.sol\":23370:23408  require(input[i] < snark_scalar_field) */\n      tag_35\n      jumpi\n      0x00\n      dup1\n      revert\n    tag_35:\n        /* \"verifier.sol\":23429:23502  Pairing.addition(vk_x, Pairing.scalar_mul(vk.gamma_abc[i + 1], input[i])) */\n      tag_36\n        /* \"verifier.sol\":23446:23450  vk_x */\n      dup3\n        /* \"verifier.sol\":23452:23501  Pairing.scalar_mul(vk.gamma_abc[i + 1], input[i]) */\n      tag_37\n        /* \"verifier.sol\":23471:23473  vk */\n      dup6\n        /* \"verifier.sol\":23471:23483  vk.gamma_abc */\n      0x80\n      add\n      mload\n        /* \"verifier.sol\":23488:23489  1 */\n      0x01\n        /* \"verifier.sol\":23484:23485  i */\n      dup6\n        /* \"verifier.sol\":23484:23489  i + 1 */\n      add\n        /* \"verifier.sol\":23471:23490  vk.gamma_abc[i + 1] */\n      dup2\n      mload\n      dup2\n      lt\n      tag_38\n      jumpi\n      invalid\n    tag_38:\n      0x20\n      mul\n      0x20\n      add\n      add\n      mload\n        /* \"verifier.sol\":23492:23497  input */\n      dup11\n        /* \"verifier.sol\":23498:23499  i */\n      dup6\n        /* \"verifier.sol\":23492:23500  input[i] */\n      dup2\n      mload\n      dup2\n      lt\n      tag_39\n      jumpi\n      invalid\n    tag_39:\n      0x20\n      mul\n      0x20\n      add\n      add\n      mload\n        /* \"verifier.sol\":23452:23470  Pairing.scalar_mul */\n      tag_40\n        /* \"verifier.sol\":23452:23501  Pairing.scalar_mul(vk.gamma_abc[i + 1], input[i]) */\n      jump\t// in\n    tag_37:\n        /* \"verifier.sol\":23429:23445  Pairing.addition */\n      tag_41\n        /* \"verifier.sol\":23429:23502  Pairing.addition(vk_x, Pairing.scalar_mul(vk.gamma_abc[i + 1], input[i])) */\n      jump\t// in\n    tag_36:\n        /* \"verifier.sol\":23422:23502  vk_x = Pairing.addition(vk_x, Pairing.scalar_mul(vk.gamma_abc[i + 1], input[i])) */\n      swap2\n      pop\n        /* \"verifier.sol\":23351:23354  i++ */\n      dup1\n      dup1\n      0x01\n      add\n      swap2\n      pop\n      pop\n        /* \"verifier.sol\":23316:23513  for (uint i = 0; i < input.length; i++) {... */\n      jump(tag_31)\n    tag_32:\n      pop\n        /* \"verifier.sol\":23529:23568  Pairing.addition(vk_x, vk.gamma_abc[0]) */\n      tag_42\n        /* \"verifier.sol\":23546:23550  vk_x */\n      dup2\n        /* \"verifier.sol\":23552:23554  vk */\n      dup4\n        /* \"verifier.sol\":23552:23564  vk.gamma_abc */\n      0x80\n      add\n      mload\n        /* \"verifier.sol\":23565:23566  0 */\n      0x00\n        /* \"verifier.sol\":23552:23567  vk.gamma_abc[0] */\n      dup2\n      mload\n      dup2\n      lt\n      tag_43\n      jumpi\n      invalid\n    tag_43:\n      0x20\n      mul\n      0x20\n      add\n      add\n      mload\n        /* \"verifier.sol\":23529:23545  Pairing.addition */\n      tag_41\n        /* \"verifier.sol\":23529:23568  Pairing.addition(vk_x, vk.gamma_abc[0]) */\n      jump\t// in\n    tag_42:\n        /* \"verifier.sol\":23522:23568  vk_x = Pairing.addition(vk_x, vk.gamma_abc[0]) */\n      swap1\n      pop\n        /* \"verifier.sol\":23582:23768  Pairing.pairingProd4(... */\n      tag_44\n        /* \"verifier.sol\":23617:23622  proof */\n      dup6\n        /* \"verifier.sol\":23617:23624  proof.a */\n      0x00\n      add\n      mload\n        /* \"verifier.sol\":23626:23631  proof */\n      dup7\n        /* \"verifier.sol\":23626:23633  proof.b */\n      0x20\n      add\n      mload\n        /* \"verifier.sol\":23648:23668  Pairing.negate(vk_x) */\n      tag_45\n        /* \"verifier.sol\":23663:23667  vk_x */\n      dup5\n        /* \"verifier.sol\":23648:23662  Pairing.negate */\n      tag_46\n        /* \"verifier.sol\":23648:23668  Pairing.negate(vk_x) */\n      jump\t// in\n    tag_45:\n        /* \"verifier.sol\":23670:23672  vk */\n      dup6\n        /* \"verifier.sol\":23670:23678  vk.gamma */\n      0x40\n      add\n      mload\n        /* \"verifier.sol\":23693:23716  Pairing.negate(proof.c) */\n      tag_47\n        /* \"verifier.sol\":23708:23713  proof */\n      dup11\n        /* \"verifier.sol\":23708:23715  proof.c */\n      0x40\n      add\n      mload\n        /* \"verifier.sol\":23693:23707  Pairing.negate */\n      tag_46\n        /* \"verifier.sol\":23693:23716  Pairing.negate(proof.c) */\n      jump\t// in\n    tag_47:\n        /* \"verifier.sol\":23718:23720  vk */\n      dup8\n        /* \"verifier.sol\":23718:23726  vk.delta */\n      0x60\n      add\n      mload\n        /* \"verifier.sol\":23741:23761  Pairing.negate(vk.a) */\n      tag_48\n        /* \"verifier.sol\":23756:23758  vk */\n      dup10\n        /* \"verifier.sol\":23756:23760  vk.a */\n      0x00\n      add\n      mload\n        /* \"verifier.sol\":23741:23755  Pairing.negate */\n      tag_46\n        /* \"verifier.sol\":23741:23761  Pairing.negate(vk.a) */\n      jump\t// in\n    tag_48:\n        /* \"verifier.sol\":23763:23765  vk */\n      dup10\n        /* \"verifier.sol\":23763:23767  vk.b */\n      0x20\n      add\n      mload\n        /* \"verifier.sol\":23582:23602  Pairing.pairingProd4 */\n      tag_49\n        /* \"verifier.sol\":23582:23768  Pairing.pairingProd4(... */\n      jump\t// in\n    tag_44:\n        /* \"verifier.sol\":23578:23778  if(!Pairing.pairingProd4(... */\n      tag_50\n      jumpi\n        /* \"verifier.sol\":23777:23778  1 */\n      0x01\n        /* \"verifier.sol\":23770:23778  return 1 */\n      swap4\n      pop\n      pop\n      pop\n      pop\n      jump(tag_23)\n        /* \"verifier.sol\":23578:23778  if(!Pairing.pairingProd4(... */\n    tag_50:\n        /* \"verifier.sol\":23795:23796  0 */\n      0x00\n        /* \"verifier.sol\":23788:23796  return 0 */\n      swap4\n      pop\n      pop\n      pop\n      pop\n        /* \"verifier.sol\":22894:23803  function verify(uint[] memory input, Proof memory proof) internal returns (uint) {... */\n    tag_23:\n      swap3\n      swap2\n      pop\n      pop\n      jump\t// out\n        /* \"verifier.sol\":21142:22889  function verifyingKey() pure internal returns (VerifyingKey memory vk) {... */\n    tag_27:\n        /* \"verifier.sol\":21189:21211  VerifyingKey memory vk */\n      tag_51\n      tag_25\n      jump\t// in\n    tag_51:\n        /* \"verifier.sol\":21230:21399  Pairing.G1Point(uint256(0x1936c240636390dc823e3a728e94b208eb53c6756d81da57ec3425e05d43ac10), uint256(0x2d70ff78e8216bf29d58923a686d9738278b8ce2fd822e197c85b09286d15566)) */\n      mload(0x40)\n      dup1\n      0x40\n      add\n      0x40\n      mstore\n      dup1\n        /* \"verifier.sol\":21254:21320  0x1936c240636390dc823e3a728e94b208eb53c6756d81da57ec3425e05d43ac10 */\n      0x1936c240636390dc823e3a728e94b208eb53c6756d81da57ec3425e05d43ac10\n        /* \"verifier.sol\":21230:21399  Pairing.G1Point(uint256(0x1936c240636390dc823e3a728e94b208eb53c6756d81da57ec3425e05d43ac10), uint256(0x2d70ff78e8216bf29d58923a686d9738278b8ce2fd822e197c85b09286d15566)) */\n      dup2\n      mstore\n      0x20\n      add\n        /* \"verifier.sol\":21331:21397  0x2d70ff78e8216bf29d58923a686d9738278b8ce2fd822e197c85b09286d15566 */\n      0x2d70ff78e8216bf29d58923a686d9738278b8ce2fd822e197c85b09286d15566\n        /* \"verifier.sol\":21230:21399  Pairing.G1Point(uint256(0x1936c240636390dc823e3a728e94b208eb53c6756d81da57ec3425e05d43ac10), uint256(0x2d70ff78e8216bf29d58923a686d9738278b8ce2fd822e197c85b09286d15566)) */\n      dup2\n      mstore\n      pop\n        /* \"verifier.sol\":21223:21225  vk */\n      dup2\n        /* \"verifier.sol\":21223:21227  vk.a */\n      0x00\n      add\n        /* \"verifier.sol\":21223:21399  vk.a = Pairing.G1Point(uint256(0x1936c240636390dc823e3a728e94b208eb53c6756d81da57ec3425e05d43ac10), uint256(0x2d70ff78e8216bf29d58923a686d9738278b8ce2fd822e197c85b09286d15566)) */\n      dup2\n      swap1\n      mstore\n      pop\n        /* \"verifier.sol\":21416:21743  Pairing.G2Point([uint256(0x2b4daf047abe2e7f0b311118c1b963b63695dc0d769cea78849604434de055bf), uint256(0x29c13ecb6f33dbc4b3b8a02e2e255511ce4c26a8a2f299efcc94caf2de4fce00)], [uint256(0x1da9020008df7f549751f8a251af3b2dc4a2ad3e0870de54acaedd9fc1b47e17), uint256(0x25ea0d7e2b29de431b86a943db30dbf4d98f68df9ca8a9628d14d1591e817d90)]) */\n      mload(0x40)\n      dup1\n      0x40\n      add\n      0x40\n      mstore\n      dup1\n      mload(0x40)\n      dup1\n      0x40\n      add\n      0x40\n      mstore\n      dup1\n        /* \"verifier.sol\":21441:21507  0x2b4daf047abe2e7f0b311118c1b963b63695dc0d769cea78849604434de055bf */\n      0x2b4daf047abe2e7f0b311118c1b963b63695dc0d769cea78849604434de055bf\n        /* \"verifier.sol\":21416:21743  Pairing.G2Point([uint256(0x2b4daf047abe2e7f0b311118c1b963b63695dc0d769cea78849604434de055bf), uint256(0x29c13ecb6f33dbc4b3b8a02e2e255511ce4c26a8a2f299efcc94caf2de4fce00)], [uint256(0x1da9020008df7f549751f8a251af3b2dc4a2ad3e0870de54acaedd9fc1b47e17), uint256(0x25ea0d7e2b29de431b86a943db30dbf4d98f68df9ca8a9628d14d1591e817d90)]) */\n      dup2\n      mstore\n      0x20\n      add\n        /* \"verifier.sol\":21518:21584  0x29c13ecb6f33dbc4b3b8a02e2e255511ce4c26a8a2f299efcc94caf2de4fce00 */\n      0x29c13ecb6f33dbc4b3b8a02e2e255511ce4c26a8a2f299efcc94caf2de4fce00\n        /* \"verifier.sol\":21416:21743  Pairing.G2Point([uint256(0x2b4daf047abe2e7f0b311118c1b963b63695dc0d769cea78849604434de055bf), uint256(0x29c13ecb6f33dbc4b3b8a02e2e255511ce4c26a8a2f299efcc94caf2de4fce00)], [uint256(0x1da9020008df7f549751f8a251af3b2dc4a2ad3e0870de54acaedd9fc1b47e17), uint256(0x25ea0d7e2b29de431b86a943db30dbf4d98f68df9ca8a9628d14d1591e817d90)]) */\n      dup2\n      mstore\n      pop\n      dup2\n      mstore\n      0x20\n      add\n      mload(0x40)\n      dup1\n      0x40\n      add\n      0x40\n      mstore\n      dup1\n        /* \"verifier.sol\":21597:21663  0x1da9020008df7f549751f8a251af3b2dc4a2ad3e0870de54acaedd9fc1b47e17 */\n      0x1da9020008df7f549751f8a251af3b2dc4a2ad3e0870de54acaedd9fc1b47e17\n        /* \"verifier.sol\":21416:21743  Pairing.G2Point([uint256(0x2b4daf047abe2e7f0b311118c1b963b63695dc0d769cea78849604434de055bf), uint256(0x29c13ecb6f33dbc4b3b8a02e2e255511ce4c26a8a2f299efcc94caf2de4fce00)], [uint256(0x1da9020008df7f549751f8a251af3b2dc4a2ad3e0870de54acaedd9fc1b47e17), uint256(0x25ea0d7e2b29de431b86a943db30dbf4d98f68df9ca8a9628d14d1591e817d90)]) */\n      dup2\n      mstore\n      0x20\n      add\n        /* \"verifier.sol\":21674:21740  0x25ea0d7e2b29de431b86a943db30dbf4d98f68df9ca8a9628d14d1591e817d90 */\n      0x25ea0d7e2b29de431b86a943db30dbf4d98f68df9ca8a9628d14d1591e817d90\n        /* \"verifier.sol\":21416:21743  Pairing.G2Point([uint256(0x2b4daf047abe2e7f0b311118c1b963b63695dc0d769cea78849604434de055bf), uint256(0x29c13ecb6f33dbc4b3b8a02e2e255511ce4c26a8a2f299efcc94caf2de4fce00)], [uint256(0x1da9020008df7f549751f8a251af3b2dc4a2ad3e0870de54acaedd9fc1b47e17), uint256(0x25ea0d7e2b29de431b86a943db30dbf4d98f68df9ca8a9628d14d1591e817d90)]) */\n      dup2\n      mstore\n      pop\n      dup2\n      mstore\n      pop\n        /* \"verifier.sol\":21409:21411  vk */\n      dup2\n        /* \"verifier.sol\":21409:21413  vk.b */\n      0x20\n      add\n        /* \"verifier.sol\":21409:21743  vk.b = Pairing.G2Point([uint256(0x2b4daf047abe2e7f0b311118c1b963b63695dc0d769cea78849604434de055bf), uint256(0x29c13ecb6f33dbc4b3b8a02e2e255511ce4c26a8a2f299efcc94caf2de4fce00)], [uint256(0x1da9020008df7f549751f8a251af3b2dc4a2ad3e0870de54acaedd9fc1b47e17), uint256(0x25ea0d7e2b29de431b86a943db30dbf4d98f68df9ca8a9628d14d1591e817d90)]) */\n      dup2\n      swap1\n      mstore\n      pop\n        /* \"verifier.sol\":21764:22091  Pairing.G2Point([uint256(0x011016e22ae045444f50fb80f246ec486c7e02af09132cd38c4fcf484983e4f2), uint256(0x00e83c788c2878d1d5eba3ed49b0d81e4c0487dedc3e4d1c2baab5833785b62f)], [uint256(0x05eb89e741ed5b5d611cebf92d1ed02cd6f3311089f0d400df7d9ced5a48fd41), uint256(0x132a90a3b0d369ccd66e2a5ba04a935e44d8ad5dca93a76bba592a578130a911)]) */\n      mload(0x40)\n      dup1\n      0x40\n      add\n      0x40\n      mstore\n      dup1\n      mload(0x40)\n      dup1\n      0x40\n      add\n      0x40\n      mstore\n      dup1\n        /* \"verifier.sol\":21789:21855  0x011016e22ae045444f50fb80f246ec486c7e02af09132cd38c4fcf484983e4f2 */\n      0x011016e22ae045444f50fb80f246ec486c7e02af09132cd38c4fcf484983e4f2\n        /* \"verifier.sol\":21764:22091  Pairing.G2Point([uint256(0x011016e22ae045444f50fb80f246ec486c7e02af09132cd38c4fcf484983e4f2), uint256(0x00e83c788c2878d1d5eba3ed49b0d81e4c0487dedc3e4d1c2baab5833785b62f)], [uint256(0x05eb89e741ed5b5d611cebf92d1ed02cd6f3311089f0d400df7d9ced5a48fd41), uint256(0x132a90a3b0d369ccd66e2a5ba04a935e44d8ad5dca93a76bba592a578130a911)]) */\n      dup2\n      mstore\n      0x20\n      add\n        /* \"verifier.sol\":21866:21932  0x00e83c788c2878d1d5eba3ed49b0d81e4c0487dedc3e4d1c2baab5833785b62f */\n      0xe83c788c2878d1d5eba3ed49b0d81e4c0487dedc3e4d1c2baab5833785b62f\n        /* \"verifier.sol\":21764:22091  Pairing.G2Point([uint256(0x011016e22ae045444f50fb80f246ec486c7e02af09132cd38c4fcf484983e4f2), uint256(0x00e83c788c2878d1d5eba3ed49b0d81e4c0487dedc3e4d1c2baab5833785b62f)], [uint256(0x05eb89e741ed5b5d611cebf92d1ed02cd6f3311089f0d400df7d9ced5a48fd41), uint256(0x132a90a3b0d369ccd66e2a5ba04a935e44d8ad5dca93a76bba592a578130a911)]) */\n      dup2\n      mstore\n      pop\n      dup2\n      mstore\n      0x20\n      add\n      mload(0x40)\n      dup1\n      0x40\n      add\n      0x40\n      mstore\n      dup1\n        /* \"verifier.sol\":21945:22011  0x05eb89e741ed5b5d611cebf92d1ed02cd6f3311089f0d400df7d9ced5a48fd41 */\n      0x05eb89e741ed5b5d611cebf92d1ed02cd6f3311089f0d400df7d9ced5a48fd41\n        /* \"verifier.sol\":21764:22091  Pairing.G2Point([uint256(0x011016e22ae045444f50fb80f246ec486c7e02af09132cd38c4fcf484983e4f2), uint256(0x00e83c788c2878d1d5eba3ed49b0d81e4c0487dedc3e4d1c2baab5833785b62f)], [uint256(0x05eb89e741ed5b5d611cebf92d1ed02cd6f3311089f0d400df7d9ced5a48fd41), uint256(0x132a90a3b0d369ccd66e2a5ba04a935e44d8ad5dca93a76bba592a578130a911)]) */\n      dup2\n      mstore\n      0x20\n      add\n        /* \"verifier.sol\":22022:22088  0x132a90a3b0d369ccd66e2a5ba04a935e44d8ad5dca93a76bba592a578130a911 */\n      0x132a90a3b0d369ccd66e2a5ba04a935e44d8ad5dca93a76bba592a578130a911\n        /* \"verifier.sol\":21764:22091  Pairing.G2Point([uint256(0x011016e22ae045444f50fb80f246ec486c7e02af09132cd38c4fcf484983e4f2), uint256(0x00e83c788c2878d1d5eba3ed49b0d81e4c0487dedc3e4d1c2baab5833785b62f)], [uint256(0x05eb89e741ed5b5d611cebf92d1ed02cd6f3311089f0d400df7d9ced5a48fd41), uint256(0x132a90a3b0d369ccd66e2a5ba04a935e44d8ad5dca93a76bba592a578130a911)]) */\n      dup2\n      mstore\n      pop\n      dup2\n      mstore\n      pop\n        /* \"verifier.sol\":21753:21755  vk */\n      dup2\n        /* \"verifier.sol\":21753:21761  vk.gamma */\n      0x40\n      add\n        /* \"verifier.sol\":21753:22091  vk.gamma = Pairing.G2Point([uint256(0x011016e22ae045444f50fb80f246ec486c7e02af09132cd38c4fcf484983e4f2), uint256(0x00e83c788c2878d1d5eba3ed49b0d81e4c0487dedc3e4d1c2baab5833785b62f)], [uint256(0x05eb89e741ed5b5d611cebf92d1ed02cd6f3311089f0d400df7d9ced5a48fd41), uint256(0x132a90a3b0d369ccd66e2a5ba04a935e44d8ad5dca93a76bba592a578130a911)]) */\n      dup2\n      swap1\n      mstore\n      pop\n        /* \"verifier.sol\":22112:22439  Pairing.G2Point([uint256(0x065f6a3323a2abffd621fc263f348eb914904b68d5897729ae34a6b9d33f0852), uint256(0x0c3b60f59d3bd50328a04c0ff6d979199685d0526f89f6ac29d6174ce24707a2)], [uint256(0x26e7ebce2b44efef6b6315938e33f0a8ecc82dbad635c9efa681ed85bbb59982), uint256(0x12e0f3721230a0f38f6c9913048d5230fd2615ef3ff7f6ee4b20dfe0bdea1a86)]) */\n      mload(0x40)\n      dup1\n      0x40\n      add\n      0x40\n      mstore\n      dup1\n      mload(0x40)\n      dup1\n      0x40\n      add\n      0x40\n      mstore\n      dup1\n        /* \"verifier.sol\":22137:22203  0x065f6a3323a2abffd621fc263f348eb914904b68d5897729ae34a6b9d33f0852 */\n      0x065f6a3323a2abffd621fc263f348eb914904b68d5897729ae34a6b9d33f0852\n        /* \"verifier.sol\":22112:22439  Pairing.G2Point([uint256(0x065f6a3323a2abffd621fc263f348eb914904b68d5897729ae34a6b9d33f0852), uint256(0x0c3b60f59d3bd50328a04c0ff6d979199685d0526f89f6ac29d6174ce24707a2)], [uint256(0x26e7ebce2b44efef6b6315938e33f0a8ecc82dbad635c9efa681ed85bbb59982), uint256(0x12e0f3721230a0f38f6c9913048d5230fd2615ef3ff7f6ee4b20dfe0bdea1a86)]) */\n      dup2\n      mstore\n      0x20\n      add\n        /* \"verifier.sol\":22214:22280  0x0c3b60f59d3bd50328a04c0ff6d979199685d0526f89f6ac29d6174ce24707a2 */\n      0x0c3b60f59d3bd50328a04c0ff6d979199685d0526f89f6ac29d6174ce24707a2\n        /* \"verifier.sol\":22112:22439  Pairing.G2Point([uint256(0x065f6a3323a2abffd621fc263f348eb914904b68d5897729ae34a6b9d33f0852), uint256(0x0c3b60f59d3bd50328a04c0ff6d979199685d0526f89f6ac29d6174ce24707a2)], [uint256(0x26e7ebce2b44efef6b6315938e33f0a8ecc82dbad635c9efa681ed85bbb59982), uint256(0x12e0f3721230a0f38f6c9913048d5230fd2615ef3ff7f6ee4b20dfe0bdea1a86)]) */\n      dup2\n      mstore\n      pop\n      dup2\n      mstore\n      0x20\n      add\n      mload(0x40)\n      dup1\n      0x40\n      add\n      0x40\n      mstore\n      dup1\n        /* \"verifier.sol\":22293:22359  0x26e7ebce2b44efef6b6315938e33f0a8ecc82dbad635c9efa681ed85bbb59982 */\n      0x26e7ebce2b44efef6b6315938e33f0a8ecc82dbad635c9efa681ed85bbb59982\n        /* \"verifier.sol\":22112:22439  Pairing.G2Point([uint256(0x065f6a3323a2abffd621fc263f348eb914904b68d5897729ae34a6b9d33f0852), uint256(0x0c3b60f59d3bd50328a04c0ff6d979199685d0526f89f6ac29d6174ce24707a2)], [uint256(0x26e7ebce2b44efef6b6315938e33f0a8ecc82dbad635c9efa681ed85bbb59982), uint256(0x12e0f3721230a0f38f6c9913048d5230fd2615ef3ff7f6ee4b20dfe0bdea1a86)]) */\n      dup2\n      mstore\n      0x20\n      add\n        /* \"verifier.sol\":22370:22436  0x12e0f3721230a0f38f6c9913048d5230fd2615ef3ff7f6ee4b20dfe0bdea1a86 */\n      0x12e0f3721230a0f38f6c9913048d5230fd2615ef3ff7f6ee4b20dfe0bdea1a86\n        /* \"verifier.sol\":22112:22439  Pairing.G2Point([uint256(0x065f6a3323a2abffd621fc263f348eb914904b68d5897729ae34a6b9d33f0852), uint256(0x0c3b60f59d3bd50328a04c0ff6d979199685d0526f89f6ac29d6174ce24707a2)], [uint256(0x26e7ebce2b44efef6b6315938e33f0a8ecc82dbad635c9efa681ed85bbb59982), uint256(0x12e0f3721230a0f38f6c9913048d5230fd2615ef3ff7f6ee4b20dfe0bdea1a86)]) */\n      dup2\n      mstore\n      pop\n      dup2\n      mstore\n      pop\n        /* \"verifier.sol\":22101:22103  vk */\n      dup2\n        /* \"verifier.sol\":22101:22109  vk.delta */\n      0x60\n      add\n        /* \"verifier.sol\":22101:22439  vk.delta = Pairing.G2Point([uint256(0x065f6a3323a2abffd621fc263f348eb914904b68d5897729ae34a6b9d33f0852), uint256(0x0c3b60f59d3bd50328a04c0ff6d979199685d0526f89f6ac29d6174ce24707a2)], [uint256(0x26e7ebce2b44efef6b6315938e33f0a8ecc82dbad635c9efa681ed85bbb59982), uint256(0x12e0f3721230a0f38f6c9913048d5230fd2615ef3ff7f6ee4b20dfe0bdea1a86)]) */\n      dup2\n      swap1\n      mstore\n      pop\n        /* \"verifier.sol\":22486:22487  2 */\n      0x02\n        /* \"verifier.sol\":22464:22488  new Pairing.G1Point[](2) */\n      mload(0x40)\n      swap1\n      dup1\n      dup3\n      mstore\n      dup1\n      0x20\n      mul\n      0x20\n      add\n      dup3\n      add\n      0x40\n      mstore\n      dup1\n      iszero\n      tag_53\n      jumpi\n      dup2\n      0x20\n      add\n    tag_54:\n      tag_55\n      tag_56\n      jump\t// in\n    tag_55:\n      dup2\n      mstore\n      0x20\n      add\n      swap1\n      0x01\n      swap1\n      sub\n      swap1\n      dup2\n      tag_54\n      jumpi\n      swap1\n      pop\n    tag_53:\n      pop\n        /* \"verifier.sol\":22449:22451  vk */\n      dup2\n        /* \"verifier.sol\":22449:22461  vk.gamma_abc */\n      0x80\n      add\n        /* \"verifier.sol\":22449:22488  vk.gamma_abc = new Pairing.G1Point[](2) */\n      dup2\n      swap1\n      mstore\n      pop\n        /* \"verifier.sol\":22516:22685  Pairing.G1Point(uint256(0x07f481a1cb7cea7eb760d12aa4d1b61ab95a34d63783e68b0bbc9a524c388135), uint256(0x0b723281a130974c10d5bc702601b943cfb263864afd4ce5c4c0e61d8619e132)) */\n      mload(0x40)\n      dup1\n      0x40\n      add\n      0x40\n      mstore\n      dup1\n        /* \"verifier.sol\":22540:22606  0x07f481a1cb7cea7eb760d12aa4d1b61ab95a34d63783e68b0bbc9a524c388135 */\n      0x07f481a1cb7cea7eb760d12aa4d1b61ab95a34d63783e68b0bbc9a524c388135\n        /* \"verifier.sol\":22516:22685  Pairing.G1Point(uint256(0x07f481a1cb7cea7eb760d12aa4d1b61ab95a34d63783e68b0bbc9a524c388135), uint256(0x0b723281a130974c10d5bc702601b943cfb263864afd4ce5c4c0e61d8619e132)) */\n      dup2\n      mstore\n      0x20\n      add\n        /* \"verifier.sol\":22617:22683  0x0b723281a130974c10d5bc702601b943cfb263864afd4ce5c4c0e61d8619e132 */\n      0x0b723281a130974c10d5bc702601b943cfb263864afd4ce5c4c0e61d8619e132\n        /* \"verifier.sol\":22516:22685  Pairing.G1Point(uint256(0x07f481a1cb7cea7eb760d12aa4d1b61ab95a34d63783e68b0bbc9a524c388135), uint256(0x0b723281a130974c10d5bc702601b943cfb263864afd4ce5c4c0e61d8619e132)) */\n      dup2\n      mstore\n      pop\n        /* \"verifier.sol\":22498:22500  vk */\n      dup2\n        /* \"verifier.sol\":22498:22510  vk.gamma_abc */\n      0x80\n      add\n      mload\n        /* \"verifier.sol\":22511:22512  0 */\n      0x00\n        /* \"verifier.sol\":22498:22513  vk.gamma_abc[0] */\n      dup2\n      mload\n      dup2\n      lt\n      tag_57\n      jumpi\n      invalid\n    tag_57:\n      0x20\n      mul\n      0x20\n      add\n      add\n        /* \"verifier.sol\":22498:22685  vk.gamma_abc[0] = Pairing.G1Point(uint256(0x07f481a1cb7cea7eb760d12aa4d1b61ab95a34d63783e68b0bbc9a524c388135), uint256(0x0b723281a130974c10d5bc702601b943cfb263864afd4ce5c4c0e61d8619e132)) */\n      dup2\n      swap1\n      mstore\n      pop\n        /* \"verifier.sol\":22713:22882  Pairing.G1Point(uint256(0x1f86c8f7610cced630b8f704def6d0756a43c68d012b98b3801c6b5649009849), uint256(0x2b6b7f92ab24620816bde4842e27fa635932dcecdab53c799403f5bca9718914)) */\n      mload(0x40)\n      dup1\n      0x40\n      add\n      0x40\n      mstore\n      dup1\n        /* \"verifier.sol\":22737:22803  0x1f86c8f7610cced630b8f704def6d0756a43c68d012b98b3801c6b5649009849 */\n      0x1f86c8f7610cced630b8f704def6d0756a43c68d012b98b3801c6b5649009849\n        /* \"verifier.sol\":22713:22882  Pairing.G1Point(uint256(0x1f86c8f7610cced630b8f704def6d0756a43c68d012b98b3801c6b5649009849), uint256(0x2b6b7f92ab24620816bde4842e27fa635932dcecdab53c799403f5bca9718914)) */\n      dup2\n      mstore\n      0x20\n      add\n        /* \"verifier.sol\":22814:22880  0x2b6b7f92ab24620816bde4842e27fa635932dcecdab53c799403f5bca9718914 */\n      0x2b6b7f92ab24620816bde4842e27fa635932dcecdab53c799403f5bca9718914\n        /* \"verifier.sol\":22713:22882  Pairing.G1Point(uint256(0x1f86c8f7610cced630b8f704def6d0756a43c68d012b98b3801c6b5649009849), uint256(0x2b6b7f92ab24620816bde4842e27fa635932dcecdab53c799403f5bca9718914)) */\n      dup2\n      mstore\n      pop\n        /* \"verifier.sol\":22695:22697  vk */\n      dup2\n        /* \"verifier.sol\":22695:22707  vk.gamma_abc */\n      0x80\n      add\n      mload\n        /* \"verifier.sol\":22708:22709  1 */\n      0x01\n        /* \"verifier.sol\":22695:22710  vk.gamma_abc[1] */\n      dup2\n      mload\n      dup2\n      lt\n      tag_58\n      jumpi\n      invalid\n    tag_58:\n      0x20\n      mul\n      0x20\n      add\n      add\n        /* \"verifier.sol\":22695:22882  vk.gamma_abc[1] = Pairing.G1Point(uint256(0x1f86c8f7610cced630b8f704def6d0756a43c68d012b98b3801c6b5649009849), uint256(0x2b6b7f92ab24620816bde4842e27fa635932dcecdab53c799403f5bca9718914)) */\n      dup2\n      swap1\n      mstore\n      pop\n        /* \"verifier.sol\":21142:22889  function verifyingKey() pure internal returns (VerifyingKey memory vk) {... */\n      swap1\n      jump\t// out\n        /* \"verifier.sol\":17681:18127  function scalar_mul(G1Point memory p, uint s) internal returns (G1Point memory r) {... */\n    tag_40:\n        /* \"verifier.sol\":17745:17761  G1Point memory r */\n      tag_59\n      tag_30\n      jump\t// in\n    tag_59:\n        /* \"verifier.sol\":17773:17793  uint[3] memory input */\n      tag_61\n      tag_62\n      jump\t// in\n    tag_61:\n        /* \"verifier.sol\":17814:17815  p */\n      dup4\n        /* \"verifier.sol\":17814:17817  p.X */\n      0x00\n      add\n      mload\n        /* \"verifier.sol\":17803:17808  input */\n      dup2\n        /* \"verifier.sol\":17809:17810  0 */\n      0x00\n        /* \"verifier.sol\":17803:17811  input[0] */\n      0x03\n      dup2\n      lt\n      tag_63\n      jumpi\n      invalid\n    tag_63:\n      0x20\n      mul\n      add\n        /* \"verifier.sol\":17803:17817  input[0] = p.X */\n      dup2\n      dup2\n      mstore\n      pop\n      pop\n        /* \"verifier.sol\":17838:17839  p */\n      dup4\n        /* \"verifier.sol\":17838:17841  p.Y */\n      0x20\n      add\n      mload\n        /* \"verifier.sol\":17827:17832  input */\n      dup2\n        /* \"verifier.sol\":17833:17834  1 */\n      0x01\n        /* \"verifier.sol\":17827:17835  input[1] */\n      0x03\n      dup2\n      lt\n      tag_64\n      jumpi\n      invalid\n    tag_64:\n      0x20\n      mul\n      add\n        /* \"verifier.sol\":17827:17841  input[1] = p.Y */\n      dup2\n      dup2\n      mstore\n      pop\n      pop\n        /* \"verifier.sol\":17862:17863  s */\n      dup3\n        /* \"verifier.sol\":17851:17856  input */\n      dup2\n        /* \"verifier.sol\":17857:17858  2 */\n      0x02\n        /* \"verifier.sol\":17851:17859  input[2] */\n      0x03\n      dup2\n      lt\n      tag_65\n      jumpi\n      invalid\n    tag_65:\n      0x20\n      mul\n      add\n        /* \"verifier.sol\":17851:17863  input[2] = s */\n      dup2\n      dup2\n      mstore\n      pop\n      pop\n        /* \"verifier.sol\":17873:17885  bool success */\n      0x00\n        /* \"verifier.sol\":17974:17978  0x60 */\n      0x60\n        /* \"verifier.sol\":17971:17972  r */\n      dup4\n        /* \"verifier.sol\":17965:17969  0x80 */\n      0x80\n        /* \"verifier.sol\":17958:17963  input */\n      dup5\n        /* \"verifier.sol\":17955:17956  0 */\n      0x00\n        /* \"verifier.sol\":17952:17953  7 */\n      0x07\n        /* \"verifier.sol\":17945:17949  2000 */\n      0x07d0\n        /* \"verifier.sol\":17938:17943  gas() */\n      gas\n        /* \"verifier.sol\":17934:17950  sub(gas(), 2000) */\n      sub\n        /* \"verifier.sol\":17929:17979  call(sub(gas(), 2000), 7, 0, input, 0x80, r, 0x60) */\n      call\n        /* \"verifier.sol\":17918:17979  success := call(sub(gas(), 2000), 7, 0, input, 0x80, r, 0x60) */\n      swap1\n      pop\n        /* \"verifier.sol\":18056:18063  success */\n      dup1\n        /* \"verifier.sol\":18069:18070  0 */\n      0x00\n        /* \"verifier.sol\":18064:18084  case 0 { invalid() } */\n      dup2\n      eq\n      tag_67\n      jumpi\n        /* \"verifier.sol\":18049:18084  switch success case 0 { invalid() } */\n      jump(tag_66)\n        /* \"verifier.sol\":18064:18084  case 0 { invalid() } */\n    tag_67:\n        /* \"verifier.sol\":18073:18082  invalid() */\n      invalid\n        /* \"verifier.sol\":18049:18084  switch success case 0 { invalid() } */\n    tag_66:\n      pop\n        /* \"verifier.sol\":18112:18119  success */\n      dup1\n        /* \"verifier.sol\":18103:18120  require (success) */\n      tag_68\n      jumpi\n      0x00\n      dup1\n      revert\n    tag_68:\n        /* \"verifier.sol\":17681:18127  function scalar_mul(G1Point memory p, uint s) internal returns (G1Point memory r) {... */\n      pop\n      pop\n      swap3\n      swap2\n      pop\n      pop\n      jump\t// out\n        /* \"verifier.sol\":16763:17248  function addition(G1Point memory p1, G1Point memory p2) internal returns (G1Point memory r) {... */\n    tag_41:\n        /* \"verifier.sol\":16837:16853  G1Point memory r */\n      tag_69\n      tag_30\n      jump\t// in\n    tag_69:\n        /* \"verifier.sol\":16865:16885  uint[4] memory input */\n      tag_71\n      tag_72\n      jump\t// in\n    tag_71:\n        /* \"verifier.sol\":16906:16908  p1 */\n      dup4\n        /* \"verifier.sol\":16906:16910  p1.X */\n      0x00\n      add\n      mload\n        /* \"verifier.sol\":16895:16900  input */\n      dup2\n        /* \"verifier.sol\":16901:16902  0 */\n      0x00\n        /* \"verifier.sol\":16895:16903  input[0] */\n      0x04\n      dup2\n      lt\n      tag_73\n      jumpi\n      invalid\n    tag_73:\n      0x20\n      mul\n      add\n        /* \"verifier.sol\":16895:16910  input[0] = p1.X */\n      dup2\n      dup2\n      mstore\n      pop\n      pop\n        /* \"verifier.sol\":16931:16933  p1 */\n      dup4\n        /* \"verifier.sol\":16931:16935  p1.Y */\n      0x20\n      add\n      mload\n        /* \"verifier.sol\":16920:16925  input */\n      dup2\n        /* \"verifier.sol\":16926:16927  1 */\n      0x01\n        /* \"verifier.sol\":16920:16928  input[1] */\n      0x04\n      dup2\n      lt\n      tag_74\n      jumpi\n      invalid\n    tag_74:\n      0x20\n      mul\n      add\n        /* \"verifier.sol\":16920:16935  input[1] = p1.Y */\n      dup2\n      dup2\n      mstore\n      pop\n      pop\n        /* \"verifier.sol\":16956:16958  p2 */\n      dup3\n        /* \"verifier.sol\":16956:16960  p2.X */\n      0x00\n      add\n      mload\n        /* \"verifier.sol\":16945:16950  input */\n      dup2\n        /* \"verifier.sol\":16951:16952  2 */\n      0x02\n        /* \"verifier.sol\":16945:16953  input[2] */\n      0x04\n      dup2\n      lt\n      tag_75\n      jumpi\n      invalid\n    tag_75:\n      0x20\n      mul\n      add\n        /* \"verifier.sol\":16945:16960  input[2] = p2.X */\n      dup2\n      dup2\n      mstore\n      pop\n      pop\n        /* \"verifier.sol\":16981:16983  p2 */\n      dup3\n        /* \"verifier.sol\":16981:16985  p2.Y */\n      0x20\n      add\n      mload\n        /* \"verifier.sol\":16970:16975  input */\n      dup2\n        /* \"verifier.sol\":16976:16977  3 */\n      0x03\n        /* \"verifier.sol\":16970:16978  input[3] */\n      0x04\n      dup2\n      lt\n      tag_76\n      jumpi\n      invalid\n    tag_76:\n      0x20\n      mul\n      add\n        /* \"verifier.sol\":16970:16985  input[3] = p2.Y */\n      dup2\n      dup2\n      mstore\n      pop\n      pop\n        /* \"verifier.sol\":16995:17007  bool success */\n      0x00\n        /* \"verifier.sol\":17096:17100  0x60 */\n      0x60\n        /* \"verifier.sol\":17093:17094  r */\n      dup4\n        /* \"verifier.sol\":17087:17091  0xc0 */\n      0xc0\n        /* \"verifier.sol\":17080:17085  input */\n      dup5\n        /* \"verifier.sol\":17077:17078  0 */\n      0x00\n        /* \"verifier.sol\":17074:17075  6 */\n      0x06\n        /* \"verifier.sol\":17067:17071  2000 */\n      0x07d0\n        /* \"verifier.sol\":17060:17065  gas() */\n      gas\n        /* \"verifier.sol\":17056:17072  sub(gas(), 2000) */\n      sub\n        /* \"verifier.sol\":17051:17101  call(sub(gas(), 2000), 6, 0, input, 0xc0, r, 0x60) */\n      call\n        /* \"verifier.sol\":17040:17101  success := call(sub(gas(), 2000), 6, 0, input, 0xc0, r, 0x60) */\n      swap1\n      pop\n        /* \"verifier.sol\":17178:17185  success */\n      dup1\n        /* \"verifier.sol\":17191:17192  0 */\n      0x00\n        /* \"verifier.sol\":17186:17206  case 0 { invalid() } */\n      dup2\n      eq\n      tag_78\n      jumpi\n        /* \"verifier.sol\":17171:17206  switch success case 0 { invalid() } */\n      jump(tag_77)\n        /* \"verifier.sol\":17186:17206  case 0 { invalid() } */\n    tag_78:\n        /* \"verifier.sol\":17195:17204  invalid() */\n      invalid\n        /* \"verifier.sol\":17171:17206  switch success case 0 { invalid() } */\n    tag_77:\n      pop\n        /* \"verifier.sol\":17233:17240  success */\n      dup1\n        /* \"verifier.sol\":17225:17241  require(success) */\n      tag_79\n      jumpi\n      0x00\n      dup1\n      revert\n    tag_79:\n        /* \"verifier.sol\":16763:17248  function addition(G1Point memory p1, G1Point memory p2) internal returns (G1Point memory r) {... */\n      pop\n      pop\n      swap3\n      swap2\n      pop\n      pop\n      jump\t// out\n        /* \"verifier.sol\":16372:16712  function negate(G1Point memory p) pure internal returns (G1Point memory) {... */\n    tag_46:\n        /* \"verifier.sol\":16429:16443  G1Point memory */\n      tag_80\n      tag_30\n      jump\t// in\n    tag_80:\n        /* \"verifier.sol\":16507:16513  uint q */\n      0x00\n        /* \"verifier.sol\":16516:16593  21888242871839275222246405745257275088696311157297823662689037894645226208583 */\n      0x30644e72e131a029b85045b68181585d97816a916871ca8d3c208c16d87cfd47\n        /* \"verifier.sol\":16507:16593  uint q = 21888242871839275222246405745257275088696311157297823662689037894645226208583 */\n      swap1\n      pop\n        /* \"verifier.sol\":16614:16615  0 */\n      0x00\n        /* \"verifier.sol\":16607:16608  p */\n      dup4\n        /* \"verifier.sol\":16607:16610  p.X */\n      0x00\n      add\n      mload\n        /* \"verifier.sol\":16607:16615  p.X == 0 */\n      eq\n        /* \"verifier.sol\":16607:16627  p.X == 0 && p.Y == 0 */\n      dup1\n      iszero\n      tag_82\n      jumpi\n      pop\n        /* \"verifier.sol\":16626:16627  0 */\n      0x00\n        /* \"verifier.sol\":16619:16620  p */\n      dup4\n        /* \"verifier.sol\":16619:16622  p.Y */\n      0x20\n      add\n      mload\n        /* \"verifier.sol\":16619:16627  p.Y == 0 */\n      eq\n        /* \"verifier.sol\":16607:16627  p.X == 0 && p.Y == 0 */\n    tag_82:\n        /* \"verifier.sol\":16603:16661  if (p.X == 0 && p.Y == 0)... */\n      iszero\n      tag_83\n      jumpi\n        /* \"verifier.sol\":16648:16661  G1Point(0, 0) */\n      mload(0x40)\n      dup1\n      0x40\n      add\n      0x40\n      mstore\n      dup1\n        /* \"verifier.sol\":16656:16657  0 */\n      0x00\n        /* \"verifier.sol\":16648:16661  G1Point(0, 0) */\n      dup2\n      mstore\n      0x20\n      add\n        /* \"verifier.sol\":16659:16660  0 */\n      0x00\n        /* \"verifier.sol\":16648:16661  G1Point(0, 0) */\n      dup2\n      mstore\n      pop\n        /* \"verifier.sol\":16641:16661  return G1Point(0, 0) */\n      swap2\n      pop\n      pop\n      jump(tag_81)\n        /* \"verifier.sol\":16603:16661  if (p.X == 0 && p.Y == 0)... */\n    tag_83:\n        /* \"verifier.sol\":16678:16705  G1Point(p.X, q - (p.Y % q)) */\n      mload(0x40)\n      dup1\n      0x40\n      add\n      0x40\n      mstore\n      dup1\n        /* \"verifier.sol\":16686:16687  p */\n      dup5\n        /* \"verifier.sol\":16686:16689  p.X */\n      0x00\n      add\n      mload\n        /* \"verifier.sol\":16678:16705  G1Point(p.X, q - (p.Y % q)) */\n      dup2\n      mstore\n      0x20\n      add\n        /* \"verifier.sol\":16702:16703  q */\n      dup3\n        /* \"verifier.sol\":16696:16697  p */\n      dup6\n        /* \"verifier.sol\":16696:16699  p.Y */\n      0x20\n      add\n      mload\n        /* \"verifier.sol\":16696:16703  p.Y % q */\n      dup2\n      tag_84\n      jumpi\n      invalid\n    tag_84:\n      mod\n        /* \"verifier.sol\":16691:16692  q */\n      dup4\n        /* \"verifier.sol\":16691:16704  q - (p.Y % q) */\n      sub\n        /* \"verifier.sol\":16678:16705  G1Point(p.X, q - (p.Y % q)) */\n      dup2\n      mstore\n      pop\n        /* \"verifier.sol\":16671:16705  return G1Point(p.X, q - (p.Y % q)) */\n      swap2\n      pop\n      pop\n        /* \"verifier.sol\":16372:16712  function negate(G1Point memory p) pure internal returns (G1Point memory) {... */\n    tag_81:\n      swap2\n      swap1\n      pop\n      jump\t// out\n        /* \"verifier.sol\":20251:20798  function pairingProd4(... */\n    tag_49:\n        /* \"verifier.sol\":20497:20501  bool */\n      0x00\n        /* \"verifier.sol\":20513:20532  G1Point[] memory p1 */\n      0x60\n        /* \"verifier.sol\":20549:20550  4 */\n      0x04\n        /* \"verifier.sol\":20535:20551  new G1Point[](4) */\n      mload(0x40)\n      swap1\n      dup1\n      dup3\n      mstore\n      dup1\n      0x20\n      mul\n      0x20\n      add\n      dup3\n      add\n      0x40\n      mstore\n      dup1\n      iszero\n      tag_86\n      jumpi\n      dup2\n      0x20\n      add\n    tag_87:\n      tag_88\n      tag_56\n      jump\t// in\n    tag_88:\n      dup2\n      mstore\n      0x20\n      add\n      swap1\n      0x01\n      swap1\n      sub\n      swap1\n      dup2\n      tag_87\n      jumpi\n      swap1\n      pop\n    tag_86:\n      pop\n        /* \"verifier.sol\":20513:20551  G1Point[] memory p1 = new G1Point[](4) */\n      swap1\n      pop\n        /* \"verifier.sol\":20561:20580  G2Point[] memory p2 */\n      0x60\n        /* \"verifier.sol\":20597:20598  4 */\n      0x04\n        /* \"verifier.sol\":20583:20599  new G2Point[](4) */\n      mload(0x40)\n      swap1\n      dup1\n      dup3\n      mstore\n      dup1\n      0x20\n      mul\n      0x20\n      add\n      dup3\n      add\n      0x40\n      mstore\n      dup1\n      iszero\n      tag_89\n      jumpi\n      dup2\n      0x20\n      add\n    tag_90:\n      tag_91\n      tag_92\n      jump\t// in\n    tag_91:\n      dup2\n      mstore\n      0x20\n      add\n      swap1\n      0x01\n      swap1\n      sub\n      swap1\n      dup2\n      tag_90\n      jumpi\n      swap1\n      pop\n    tag_89:\n      pop\n        /* \"verifier.sol\":20561:20599  G2Point[] memory p2 = new G2Point[](4) */\n      swap1\n      pop\n        /* \"verifier.sol\":20617:20619  a1 */\n      dup11\n        /* \"verifier.sol\":20609:20611  p1 */\n      dup3\n        /* \"verifier.sol\":20612:20613  0 */\n      0x00\n        /* \"verifier.sol\":20609:20614  p1[0] */\n      dup2\n      mload\n      dup2\n      lt\n      tag_93\n      jumpi\n      invalid\n    tag_93:\n      0x20\n      mul\n      0x20\n      add\n      add\n        /* \"verifier.sol\":20609:20619  p1[0] = a1 */\n      dup2\n      swap1\n      mstore\n      pop\n        /* \"verifier.sol\":20637:20639  b1 */\n      dup9\n        /* \"verifier.sol\":20629:20631  p1 */\n      dup3\n        /* \"verifier.sol\":20632:20633  1 */\n      0x01\n        /* \"verifier.sol\":20629:20634  p1[1] */\n      dup2\n      mload\n      dup2\n      lt\n      tag_94\n      jumpi\n      invalid\n    tag_94:\n      0x20\n      mul\n      0x20\n      add\n      add\n        /* \"verifier.sol\":20629:20639  p1[1] = b1 */\n      dup2\n      swap1\n      mstore\n      pop\n        /* \"verifier.sol\":20657:20659  c1 */\n      dup7\n        /* \"verifier.sol\":20649:20651  p1 */\n      dup3\n        /* \"verifier.sol\":20652:20653  2 */\n      0x02\n        /* \"verifier.sol\":20649:20654  p1[2] */\n      dup2\n      mload\n      dup2\n      lt\n      tag_95\n      jumpi\n      invalid\n    tag_95:\n      0x20\n      mul\n      0x20\n      add\n      add\n        /* \"verifier.sol\":20649:20659  p1[2] = c1 */\n      dup2\n      swap1\n      mstore\n      pop\n        /* \"verifier.sol\":20677:20679  d1 */\n      dup5\n        /* \"verifier.sol\":20669:20671  p1 */\n      dup3\n        /* \"verifier.sol\":20672:20673  3 */\n      0x03\n        /* \"verifier.sol\":20669:20674  p1[3] */\n      dup2\n      mload\n      dup2\n      lt\n      tag_96\n      jumpi\n      invalid\n    tag_96:\n      0x20\n      mul\n      0x20\n      add\n      add\n        /* \"verifier.sol\":20669:20679  p1[3] = d1 */\n      dup2\n      swap1\n      mstore\n      pop\n        /* \"verifier.sol\":20697:20699  a2 */\n      dup10\n        /* \"verifier.sol\":20689:20691  p2 */\n      dup2\n        /* \"verifier.sol\":20692:20693  0 */\n      0x00\n        /* \"verifier.sol\":20689:20694  p2[0] */\n      dup2\n      mload\n      dup2\n      lt\n      tag_97\n      jumpi\n      invalid\n    tag_97:\n      0x20\n      mul\n      0x20\n      add\n      add\n        /* \"verifier.sol\":20689:20699  p2[0] = a2 */\n      dup2\n      swap1\n      mstore\n      pop\n        /* \"verifier.sol\":20717:20719  b2 */\n      dup8\n        /* \"verifier.sol\":20709:20711  p2 */\n      dup2\n        /* \"verifier.sol\":20712:20713  1 */\n      0x01\n        /* \"verifier.sol\":20709:20714  p2[1] */\n      dup2\n      mload\n      dup2\n      lt\n      tag_98\n      jumpi\n      invalid\n    tag_98:\n      0x20\n      mul\n      0x20\n      add\n      add\n        /* \"verifier.sol\":20709:20719  p2[1] = b2 */\n      dup2\n      swap1\n      mstore\n      pop\n        /* \"verifier.sol\":20737:20739  c2 */\n      dup6\n        /* \"verifier.sol\":20729:20731  p2 */\n      dup2\n        /* \"verifier.sol\":20732:20733  2 */\n      0x02\n        /* \"verifier.sol\":20729:20734  p2[2] */\n      dup2\n      mload\n      dup2\n      lt\n      tag_99\n      jumpi\n      invalid\n    tag_99:\n      0x20\n      mul\n      0x20\n      add\n      add\n        /* \"verifier.sol\":20729:20739  p2[2] = c2 */\n      dup2\n      swap1\n      mstore\n      pop\n        /* \"verifier.sol\":20757:20759  d2 */\n      dup4\n        /* \"verifier.sol\":20749:20751  p2 */\n      dup2\n        /* \"verifier.sol\":20752:20753  3 */\n      0x03\n        /* \"verifier.sol\":20749:20754  p2[3] */\n      dup2\n      mload\n      dup2\n      lt\n      tag_100\n      jumpi\n      invalid\n    tag_100:\n      0x20\n      mul\n      0x20\n      add\n      add\n        /* \"verifier.sol\":20749:20759  p2[3] = d2 */\n      dup2\n      swap1\n      mstore\n      pop\n        /* \"verifier.sol\":20776:20791  pairing(p1, p2) */\n      tag_101\n        /* \"verifier.sol\":20784:20786  p1 */\n      dup3\n        /* \"verifier.sol\":20788:20790  p2 */\n      dup3\n        /* \"verifier.sol\":20776:20783  pairing */\n      tag_102\n        /* \"verifier.sol\":20776:20791  pairing(p1, p2) */\n      jump\t// in\n    tag_101:\n        /* \"verifier.sol\":20769:20791  return pairing(p1, p2) */\n      swap3\n      pop\n      pop\n      pop\n        /* \"verifier.sol\":20251:20798  function pairingProd4(... */\n      swap9\n      swap8\n      pop\n      pop\n      pop\n      pop\n      pop\n      pop\n      pop\n      pop\n      jump\t// out\n        /* \"verifier.sol\":18338:19253  function pairing(G1Point[] memory p1, G2Point[] memory p2) internal returns (bool) {... */\n    tag_102:\n        /* \"verifier.sol\":18415:18419  bool */\n      0x00\n        /* \"verifier.sol\":18452:18454  p2 */\n      dup2\n        /* \"verifier.sol\":18452:18461  p2.length */\n      mload\n        /* \"verifier.sol\":18439:18441  p1 */\n      dup4\n        /* \"verifier.sol\":18439:18448  p1.length */\n      mload\n        /* \"verifier.sol\":18439:18461  p1.length == p2.length */\n      eq\n        /* \"verifier.sol\":18431:18462  require(p1.length == p2.length) */\n      tag_104\n      jumpi\n      0x00\n      dup1\n      revert\n    tag_104:\n        /* \"verifier.sol\":18472:18485  uint elements */\n      0x00\n        /* \"verifier.sol\":18488:18490  p1 */\n      dup4\n        /* \"verifier.sol\":18488:18497  p1.length */\n      mload\n        /* \"verifier.sol\":18472:18497  uint elements = p1.length */\n      swap1\n      pop\n        /* \"verifier.sol\":18507:18521  uint inputSize */\n      0x00\n        /* \"verifier.sol\":18535:18536  6 */\n      0x06\n        /* \"verifier.sol\":18524:18532  elements */\n      dup3\n        /* \"verifier.sol\":18524:18536  elements * 6 */\n      mul\n        /* \"verifier.sol\":18507:18536  uint inputSize = elements * 6 */\n      swap1\n      pop\n        /* \"verifier.sol\":18546:18565  uint[] memory input */\n      0x60\n        /* \"verifier.sol\":18579:18588  inputSize */\n      dup2\n        /* \"verifier.sol\":18568:18589  new uint[](inputSize) */\n      mload(0x40)\n      swap1\n      dup1\n      dup3\n      mstore\n      dup1\n      0x20\n      mul\n      0x20\n      add\n      dup3\n      add\n      0x40\n      mstore\n      dup1\n      iszero\n      tag_105\n      jumpi\n      dup2\n      0x20\n      add\n        /* \"--CODEGEN--\":29:31   */\n      0x20\n        /* \"--CODEGEN--\":21:27   */\n      dup3\n        /* \"--CODEGEN--\":17:32   */\n      mul\n        /* \"--CODEGEN--\":117:121   */\n      dup1\n        /* \"--CODEGEN--\":105:115   */\n      codesize\n        /* \"--CODEGEN--\":97:103   */\n      dup4\n        /* \"--CODEGEN--\":88:122   */\n      codecopy\n        /* \"--CODEGEN--\":148:152   */\n      dup1\n        /* \"--CODEGEN--\":140:146   */\n      dup3\n        /* \"--CODEGEN--\":136:153   */\n      add\n        /* \"--CODEGEN--\":126:153   */\n      swap2\n      pop\n        /* \"--CODEGEN--\":0:157   */\n      pop\n        /* \"verifier.sol\":18568:18589  new uint[](inputSize) */\n      swap1\n      pop\n    tag_105:\n      pop\n        /* \"verifier.sol\":18546:18589  uint[] memory input = new uint[](inputSize) */\n      swap1\n      pop\n        /* \"verifier.sol\":18604:18610  uint i */\n      0x00\n        /* \"verifier.sol\":18613:18614  0 */\n      dup1\n        /* \"verifier.sol\":18604:18614  uint i = 0 */\n      swap1\n      pop\n        /* \"verifier.sol\":18599:18906  for (uint i = 0; i < elements; i++)... */\n    tag_106:\n        /* \"verifier.sol\":18620:18628  elements */\n      dup4\n        /* \"verifier.sol\":18616:18617  i */\n      dup2\n        /* \"verifier.sol\":18616:18628  i < elements */\n      lt\n        /* \"verifier.sol\":18599:18906  for (uint i = 0; i < elements; i++)... */\n      iszero\n      tag_107\n      jumpi\n        /* \"verifier.sol\":18676:18678  p1 */\n      dup7\n        /* \"verifier.sol\":18679:18680  i */\n      dup2\n        /* \"verifier.sol\":18676:18681  p1[i] */\n      dup2\n      mload\n      dup2\n      lt\n      tag_109\n      jumpi\n      invalid\n    tag_109:\n      0x20\n      mul\n      0x20\n      add\n      add\n      mload\n        /* \"verifier.sol\":18676:18683  p1[i].X */\n      0x00\n      add\n      mload\n        /* \"verifier.sol\":18657:18662  input */\n      dup3\n        /* \"verifier.sol\":18671:18672  0 */\n      0x00\n        /* \"verifier.sol\":18667:18668  6 */\n      0x06\n        /* \"verifier.sol\":18663:18664  i */\n      dup5\n        /* \"verifier.sol\":18663:18668  i * 6 */\n      mul\n        /* \"verifier.sol\":18663:18672  i * 6 + 0 */\n      add\n        /* \"verifier.sol\":18657:18673  input[i * 6 + 0] */\n      dup2\n      mload\n      dup2\n      lt\n      tag_110\n      jumpi\n      invalid\n    tag_110:\n      0x20\n      mul\n      0x20\n      add\n      add\n        /* \"verifier.sol\":18657:18683  input[i * 6 + 0] = p1[i].X */\n      dup2\n      dup2\n      mstore\n      pop\n      pop\n        /* \"verifier.sol\":18716:18718  p1 */\n      dup7\n        /* \"verifier.sol\":18719:18720  i */\n      dup2\n        /* \"verifier.sol\":18716:18721  p1[i] */\n      dup2\n      mload\n      dup2\n      lt\n      tag_111\n      jumpi\n      invalid\n    tag_111:\n      0x20\n      mul\n      0x20\n      add\n      add\n      mload\n        /* \"verifier.sol\":18716:18723  p1[i].Y */\n      0x20\n      add\n      mload\n        /* \"verifier.sol\":18697:18702  input */\n      dup3\n        /* \"verifier.sol\":18711:18712  1 */\n      0x01\n        /* \"verifier.sol\":18707:18708  6 */\n      0x06\n        /* \"verifier.sol\":18703:18704  i */\n      dup5\n        /* \"verifier.sol\":18703:18708  i * 6 */\n      mul\n        /* \"verifier.sol\":18703:18712  i * 6 + 1 */\n      add\n        /* \"verifier.sol\":18697:18713  input[i * 6 + 1] */\n      dup2\n      mload\n      dup2\n      lt\n      tag_112\n      jumpi\n      invalid\n    tag_112:\n      0x20\n      mul\n      0x20\n      add\n      add\n        /* \"verifier.sol\":18697:18723  input[i * 6 + 1] = p1[i].Y */\n      dup2\n      dup2\n      mstore\n      pop\n      pop\n        /* \"verifier.sol\":18756:18758  p2 */\n      dup6\n        /* \"verifier.sol\":18759:18760  i */\n      dup2\n        /* \"verifier.sol\":18756:18761  p2[i] */\n      dup2\n      mload\n      dup2\n      lt\n      tag_113\n      jumpi\n      invalid\n    tag_113:\n      0x20\n      mul\n      0x20\n      add\n      add\n      mload\n        /* \"verifier.sol\":18756:18763  p2[i].X */\n      0x00\n      add\n      mload\n        /* \"verifier.sol\":18764:18765  0 */\n      0x00\n        /* \"verifier.sol\":18756:18766  p2[i].X[0] */\n      0x02\n      dup2\n      lt\n      tag_114\n      jumpi\n      invalid\n    tag_114:\n      0x20\n      mul\n      add\n      mload\n        /* \"verifier.sol\":18737:18742  input */\n      dup3\n        /* \"verifier.sol\":18751:18752  2 */\n      0x02\n        /* \"verifier.sol\":18747:18748  6 */\n      0x06\n        /* \"verifier.sol\":18743:18744  i */\n      dup5\n        /* \"verifier.sol\":18743:18748  i * 6 */\n      mul\n        /* \"verifier.sol\":18743:18752  i * 6 + 2 */\n      add\n        /* \"verifier.sol\":18737:18753  input[i * 6 + 2] */\n      dup2\n      mload\n      dup2\n      lt\n      tag_115\n      jumpi\n      invalid\n    tag_115:\n      0x20\n      mul\n      0x20\n      add\n      add\n        /* \"verifier.sol\":18737:18766  input[i * 6 + 2] = p2[i].X[0] */\n      dup2\n      dup2\n      mstore\n      pop\n      pop\n        /* \"verifier.sol\":18799:18801  p2 */\n      dup6\n        /* \"verifier.sol\":18802:18803  i */\n      dup2\n        /* \"verifier.sol\":18799:18804  p2[i] */\n      dup2\n      mload\n      dup2\n      lt\n      tag_116\n      jumpi\n      invalid\n    tag_116:\n      0x20\n      mul\n      0x20\n      add\n      add\n      mload\n        /* \"verifier.sol\":18799:18806  p2[i].X */\n      0x00\n      add\n      mload\n        /* \"verifier.sol\":18807:18808  1 */\n      0x01\n        /* \"verifier.sol\":18799:18809  p2[i].X[1] */\n      0x02\n      dup2\n      lt\n      tag_117\n      jumpi\n      invalid\n    tag_117:\n      0x20\n      mul\n      add\n      mload\n        /* \"verifier.sol\":18780:18785  input */\n      dup3\n        /* \"verifier.sol\":18794:18795  3 */\n      0x03\n        /* \"verifier.sol\":18790:18791  6 */\n      0x06\n        /* \"verifier.sol\":18786:18787  i */\n      dup5\n        /* \"verifier.sol\":18786:18791  i * 6 */\n      mul\n        /* \"verifier.sol\":18786:18795  i * 6 + 3 */\n      add\n        /* \"verifier.sol\":18780:18796  input[i * 6 + 3] */\n      dup2\n      mload\n      dup2\n      lt\n      tag_118\n      jumpi\n      invalid\n    tag_118:\n      0x20\n      mul\n      0x20\n      add\n      add\n        /* \"verifier.sol\":18780:18809  input[i * 6 + 3] = p2[i].X[1] */\n      dup2\n      dup2\n      mstore\n      pop\n      pop\n        /* \"verifier.sol\":18842:18844  p2 */\n      dup6\n        /* \"verifier.sol\":18845:18846  i */\n      dup2\n        /* \"verifier.sol\":18842:18847  p2[i] */\n      dup2\n      mload\n      dup2\n      lt\n      tag_119\n      jumpi\n      invalid\n    tag_119:\n      0x20\n      mul\n      0x20\n      add\n      add\n      mload\n        /* \"verifier.sol\":18842:18849  p2[i].Y */\n      0x20\n      add\n      mload\n        /* \"verifier.sol\":18850:18851  0 */\n      0x00\n        /* \"verifier.sol\":18842:18852  p2[i].Y[0] */\n      0x02\n      dup2\n      lt\n      tag_120\n      jumpi\n      invalid\n    tag_120:\n      0x20\n      mul\n      add\n      mload\n        /* \"verifier.sol\":18823:18828  input */\n      dup3\n        /* \"verifier.sol\":18837:18838  4 */\n      0x04\n        /* \"verifier.sol\":18833:18834  6 */\n      0x06\n        /* \"verifier.sol\":18829:18830  i */\n      dup5\n        /* \"verifier.sol\":18829:18834  i * 6 */\n      mul\n        /* \"verifier.sol\":18829:18838  i * 6 + 4 */\n      add\n        /* \"verifier.sol\":18823:18839  input[i * 6 + 4] */\n      dup2\n      mload\n      dup2\n      lt\n      tag_121\n      jumpi\n      invalid\n    tag_121:\n      0x20\n      mul\n      0x20\n      add\n      add\n        /* \"verifier.sol\":18823:18852  input[i * 6 + 4] = p2[i].Y[0] */\n      dup2\n      dup2\n      mstore\n      pop\n      pop\n        /* \"verifier.sol\":18885:18887  p2 */\n      dup6\n        /* \"verifier.sol\":18888:18889  i */\n      dup2\n        /* \"verifier.sol\":18885:18890  p2[i] */\n      dup2\n      mload\n      dup2\n      lt\n      tag_122\n      jumpi\n      invalid\n    tag_122:\n      0x20\n      mul\n      0x20\n      add\n      add\n      mload\n        /* \"verifier.sol\":18885:18892  p2[i].Y */\n      0x20\n      add\n      mload\n        /* \"verifier.sol\":18893:18894  1 */\n      0x01\n        /* \"verifier.sol\":18885:18895  p2[i].Y[1] */\n      0x02\n      dup2\n      lt\n      tag_123\n      jumpi\n      invalid\n    tag_123:\n      0x20\n      mul\n      add\n      mload\n        /* \"verifier.sol\":18866:18871  input */\n      dup3\n        /* \"verifier.sol\":18880:18881  5 */\n      0x05\n        /* \"verifier.sol\":18876:18877  6 */\n      0x06\n        /* \"verifier.sol\":18872:18873  i */\n      dup5\n        /* \"verifier.sol\":18872:18877  i * 6 */\n      mul\n        /* \"verifier.sol\":18872:18881  i * 6 + 5 */\n      add\n        /* \"verifier.sol\":18866:18882  input[i * 6 + 5] */\n      dup2\n      mload\n      dup2\n      lt\n      tag_124\n      jumpi\n      invalid\n    tag_124:\n      0x20\n      mul\n      0x20\n      add\n      add\n        /* \"verifier.sol\":18866:18895  input[i * 6 + 5] = p2[i].Y[1] */\n      dup2\n      dup2\n      mstore\n      pop\n      pop\n        /* \"verifier.sol\":18630:18633  i++ */\n      dup1\n      dup1\n      0x01\n      add\n      swap2\n      pop\n      pop\n        /* \"verifier.sol\":18599:18906  for (uint i = 0; i < elements; i++)... */\n      jump(tag_106)\n    tag_107:\n      pop\n        /* \"verifier.sol\":18915:18933  uint[1] memory out */\n      tag_125\n      tag_126\n      jump\t// in\n    tag_125:\n        /* \"verifier.sol\":18943:18955  bool success */\n      0x00\n        /* \"verifier.sol\":19073:19077  0x20 */\n      0x20\n        /* \"verifier.sol\":19068:19071  out */\n      dup3\n        /* \"verifier.sol\":19061:19065  0x20 */\n      0x20\n        /* \"verifier.sol\":19050:19059  inputSize */\n      dup7\n        /* \"verifier.sol\":19046:19066  mul(inputSize, 0x20) */\n      mul\n        /* \"verifier.sol\":19039:19043  0x20 */\n      0x20\n        /* \"verifier.sol\":19032:19037  input */\n      dup7\n        /* \"verifier.sol\":19028:19044  add(input, 0x20) */\n      add\n        /* \"verifier.sol\":19025:19026  0 */\n      0x00\n        /* \"verifier.sol\":19022:19023  8 */\n      0x08\n        /* \"verifier.sol\":19015:19019  2000 */\n      0x07d0\n        /* \"verifier.sol\":19008:19013  gas() */\n      gas\n        /* \"verifier.sol\":19004:19020  sub(gas(), 2000) */\n      sub\n        /* \"verifier.sol\":18999:19078  call(sub(gas(), 2000), 8, 0, add(input, 0x20), mul(inputSize, 0x20), out, 0x20) */\n      call\n        /* \"verifier.sol\":18988:19078  success := call(sub(gas(), 2000), 8, 0, add(input, 0x20), mul(inputSize, 0x20), out, 0x20) */\n      swap1\n      pop\n        /* \"verifier.sol\":19155:19162  success */\n      dup1\n        /* \"verifier.sol\":19168:19169  0 */\n      0x00\n        /* \"verifier.sol\":19163:19183  case 0 { invalid() } */\n      dup2\n      eq\n      tag_128\n      jumpi\n        /* \"verifier.sol\":19148:19183  switch success case 0 { invalid() } */\n      jump(tag_127)\n        /* \"verifier.sol\":19163:19183  case 0 { invalid() } */\n    tag_128:\n        /* \"verifier.sol\":19172:19181  invalid() */\n      invalid\n        /* \"verifier.sol\":19148:19183  switch success case 0 { invalid() } */\n    tag_127:\n      pop\n        /* \"verifier.sol\":19210:19217  success */\n      dup1\n        /* \"verifier.sol\":19202:19218  require(success) */\n      tag_129\n      jumpi\n      0x00\n      dup1\n      revert\n    tag_129:\n        /* \"verifier.sol\":19245:19246  0 */\n      0x00\n        /* \"verifier.sol\":19235:19238  out */\n      dup3\n        /* \"verifier.sol\":19239:19240  0 */\n      0x00\n        /* \"verifier.sol\":19235:19241  out[0] */\n      0x01\n      dup2\n      lt\n      tag_130\n      jumpi\n      invalid\n    tag_130:\n      0x20\n      mul\n      add\n      mload\n        /* \"verifier.sol\":19235:19246  out[0] != 0 */\n      eq\n      iszero\n        /* \"verifier.sol\":19228:19246  return out[0] != 0 */\n      swap6\n      pop\n      pop\n      pop\n      pop\n      pop\n      pop\n        /* \"verifier.sol\":18338:19253  function pairing(G1Point[] memory p1, G2Point[] memory p2) internal returns (bool) {... */\n      swap3\n      swap2\n      pop\n      pop\n      jump\t// out\n        /* \"verifier.sol\":20802:24314  contract Verifier {... */\n    tag_25:\n      mload(0x40)\n      dup1\n      0xa0\n      add\n      0x40\n      mstore\n      dup1\n      tag_131\n      tag_56\n      jump\t// in\n    tag_131:\n      dup2\n      mstore\n      0x20\n      add\n      tag_132\n      tag_92\n      jump\t// in\n    tag_132:\n      dup2\n      mstore\n      0x20\n      add\n      tag_133\n      tag_92\n      jump\t// in\n    tag_133:\n      dup2\n      mstore\n      0x20\n      add\n      tag_134\n      tag_92\n      jump\t// in\n    tag_134:\n      dup2\n      mstore\n      0x20\n      add\n      0x60\n      dup2\n      mstore\n      pop\n      swap1\n      jump\t// out\n    tag_30:\n      mload(0x40)\n      dup1\n      0x40\n      add\n      0x40\n      mstore\n      dup1\n      0x00\n      dup2\n      mstore\n      0x20\n      add\n      0x00\n      dup2\n      mstore\n      pop\n      swap1\n      jump\t// out\n    tag_56:\n      mload(0x40)\n      dup1\n      0x40\n      add\n      0x40\n      mstore\n      dup1\n      0x00\n      dup2\n      mstore\n      0x20\n      add\n      0x00\n      dup2\n      mstore\n      pop\n      swap1\n      jump\t// out\n    tag_62:\n      mload(0x40)\n      dup1\n      0x60\n      add\n      0x40\n      mstore\n      dup1\n      0x03\n      swap1\n        /* \"--CODEGEN--\":29:31   */\n      0x20\n        /* \"--CODEGEN--\":21:27   */\n      dup3\n        /* \"--CODEGEN--\":17:32   */\n      mul\n        /* \"--CODEGEN--\":117:121   */\n      dup1\n        /* \"--CODEGEN--\":105:115   */\n      codesize\n        /* \"--CODEGEN--\":97:103   */\n      dup4\n        /* \"--CODEGEN--\":88:122   */\n      codecopy\n        /* \"--CODEGEN--\":148:152   */\n      dup1\n        /* \"--CODEGEN--\":140:146   */\n      dup3\n        /* \"--CODEGEN--\":136:153   */\n      add\n        /* \"--CODEGEN--\":126:153   */\n      swap2\n      pop\n        /* \"--CODEGEN--\":0:157   */\n      pop\n        /* \"verifier.sol\":20802:24314  contract Verifier {... */\n      swap1\n      pop\n      pop\n      swap1\n      jump\t// out\n    tag_72:\n      mload(0x40)\n      dup1\n      0x80\n      add\n      0x40\n      mstore\n      dup1\n      0x04\n      swap1\n        /* \"--CODEGEN--\":29:31   */\n      0x20\n        /* \"--CODEGEN--\":21:27   */\n      dup3\n        /* \"--CODEGEN--\":17:32   */\n      mul\n        /* \"--CODEGEN--\":117:121   */\n      dup1\n        /* \"--CODEGEN--\":105:115   */\n      codesize\n        /* \"--CODEGEN--\":97:103   */\n      dup4\n        /* \"--CODEGEN--\":88:122   */\n      codecopy\n        /* \"--CODEGEN--\":148:152   */\n      dup1\n        /* \"--CODEGEN--\":140:146   */\n      dup3\n        /* \"--CODEGEN--\":136:153   */\n      add\n        /* \"--CODEGEN--\":126:153   */\n      swap2\n      pop\n        /* \"--CODEGEN--\":0:157   */\n      pop\n        /* \"verifier.sol\":20802:24314  contract Verifier {... */\n      swap1\n      pop\n      pop\n      swap1\n      jump\t// out\n    tag_92:\n      mload(0x40)\n      dup1\n      0x40\n      add\n      0x40\n      mstore\n      dup1\n      tag_135\n      tag_136\n      jump\t// in\n    tag_135:\n      dup2\n      mstore\n      0x20\n      add\n      tag_137\n      tag_136\n      jump\t// in\n    tag_137:\n      dup2\n      mstore\n      pop\n      swap1\n      jump\t// out\n    tag_126:\n      mload(0x40)\n      dup1\n      0x20\n      add\n      0x40\n      mstore\n      dup1\n      0x01\n      swap1\n        /* \"--CODEGEN--\":29:31   */\n      0x20\n        /* \"--CODEGEN--\":21:27   */\n      dup3\n        /* \"--CODEGEN--\":17:32   */\n      mul\n        /* \"--CODEGEN--\":117:121   */\n      dup1\n        /* \"--CODEGEN--\":105:115   */\n      codesize\n        /* \"--CODEGEN--\":97:103   */\n      dup4\n        /* \"--CODEGEN--\":88:122   */\n      codecopy\n        /* \"--CODEGEN--\":148:152   */\n      dup1\n        /* \"--CODEGEN--\":140:146   */\n      dup3\n        /* \"--CODEGEN--\":136:153   */\n      add\n        /* \"--CODEGEN--\":126:153   */\n      swap2\n      pop\n        /* \"--CODEGEN--\":0:157   */\n      pop\n        /* \"verifier.sol\":20802:24314  contract Verifier {... */\n      swap1\n      pop\n      pop\n      swap1\n      jump\t// out\n    tag_136:\n      mload(0x40)\n      dup1\n      0x40\n      add\n      0x40\n      mstore\n      dup1\n      0x02\n      swap1\n        /* \"--CODEGEN--\":29:31   */\n      0x20\n        /* \"--CODEGEN--\":21:27   */\n      dup3\n        /* \"--CODEGEN--\":17:32   */\n      mul\n        /* \"--CODEGEN--\":117:121   */\n      dup1\n        /* \"--CODEGEN--\":105:115   */\n      codesize\n        /* \"--CODEGEN--\":97:103   */\n      dup4\n        /* \"--CODEGEN--\":88:122   */\n      codecopy\n        /* \"--CODEGEN--\":148:152   */\n      dup1\n        /* \"--CODEGEN--\":140:146   */\n      dup3\n        /* \"--CODEGEN--\":136:153   */\n      add\n        /* \"--CODEGEN--\":126:153   */\n      swap2\n      pop\n        /* \"--CODEGEN--\":0:157   */\n      pop\n        /* \"verifier.sol\":20802:24314  contract Verifier {... */\n      swap1\n      pop\n      pop\n      swap1\n      jump\t// out\n        /* \"--CODEGEN--\":24:640   */\n    tag_139:\n      0x00\n        /* \"--CODEGEN--\":139:142   */\n      dup3\n        /* \"--CODEGEN--\":132:136   */\n      0x1f\n        /* \"--CODEGEN--\":124:130   */\n      dup4\n        /* \"--CODEGEN--\":120:137   */\n      add\n        /* \"--CODEGEN--\":116:143   */\n      slt\n        /* \"--CODEGEN--\":106:108   */\n      tag_141\n      jumpi\n        /* \"--CODEGEN--\":157:158   */\n      0x00\n        /* \"--CODEGEN--\":154:155   */\n      dup1\n        /* \"--CODEGEN--\":147:159   */\n      revert\n        /* \"--CODEGEN--\":106:108   */\n    tag_141:\n        /* \"--CODEGEN--\":181:185   */\n      0x01\n        /* \"--CODEGEN--\":200:278   */\n      tag_142\n        /* \"--CODEGEN--\":215:277   */\n      tag_143\n        /* \"--CODEGEN--\":270:276   */\n      dup3\n        /* \"--CODEGEN--\":215:277   */\n      jump(tag_144)\n    tag_143:\n        /* \"--CODEGEN--\":200:278   */\n      jump(tag_145)\n    tag_142:\n        /* \"--CODEGEN--\":191:278   */\n      swap2\n      pop\n        /* \"--CODEGEN--\":295:300   */\n      dup2\n        /* \"--CODEGEN--\":354:360   */\n      dup4\n        /* \"--CODEGEN--\":401:404   */\n      dup6\n        /* \"--CODEGEN--\":393:397   */\n      0x20\n        /* \"--CODEGEN--\":385:391   */\n      dup5\n        /* \"--CODEGEN--\":381:398   */\n      mul\n        /* \"--CODEGEN--\":376:379   */\n      dup3\n        /* \"--CODEGEN--\":372:399   */\n      add\n        /* \"--CODEGEN--\":369:405   */\n      gt\n        /* \"--CODEGEN--\":366:368   */\n      iszero\n      tag_146\n      jumpi\n        /* \"--CODEGEN--\":418:419   */\n      0x00\n        /* \"--CODEGEN--\":415:416   */\n      dup1\n        /* \"--CODEGEN--\":408:420   */\n      revert\n        /* \"--CODEGEN--\":366:368   */\n    tag_146:\n        /* \"--CODEGEN--\":443:444   */\n      0x00\n        /* \"--CODEGEN--\":428:634   */\n    tag_147:\n        /* \"--CODEGEN--\":453:459   */\n      dup4\n        /* \"--CODEGEN--\":450:451   */\n      dup2\n        /* \"--CODEGEN--\":447:460   */\n      lt\n        /* \"--CODEGEN--\":428:634   */\n      iszero\n      tag_149\n      jumpi\n        /* \"--CODEGEN--\":511:514   */\n      dup2\n        /* \"--CODEGEN--\":533:570   */\n      tag_150\n        /* \"--CODEGEN--\":566:569   */\n      dup9\n        /* \"--CODEGEN--\":554:564   */\n      dup3\n        /* \"--CODEGEN--\":533:570   */\n      jump(tag_151)\n    tag_150:\n        /* \"--CODEGEN--\":528:531   */\n      dup5\n        /* \"--CODEGEN--\":521:571   */\n      mstore\n        /* \"--CODEGEN--\":594:598   */\n      0x20\n        /* \"--CODEGEN--\":589:592   */\n      dup5\n        /* \"--CODEGEN--\":585:599   */\n      add\n        /* \"--CODEGEN--\":578:599   */\n      swap4\n      pop\n        /* \"--CODEGEN--\":622:626   */\n      0x20\n        /* \"--CODEGEN--\":617:620   */\n      dup4\n        /* \"--CODEGEN--\":613:627   */\n      add\n        /* \"--CODEGEN--\":606:627   */\n      swap3\n      pop\n        /* \"--CODEGEN--\":485:634   */\n      pop\n        /* \"--CODEGEN--\":475:476   */\n      0x01\n        /* \"--CODEGEN--\":472:473   */\n      dup2\n        /* \"--CODEGEN--\":468:477   */\n      add\n        /* \"--CODEGEN--\":463:477   */\n      swap1\n      pop\n        /* \"--CODEGEN--\":428:634   */\n      jump(tag_147)\n    tag_149:\n        /* \"--CODEGEN--\":432:446   */\n      pop\n        /* \"--CODEGEN--\":99:640   */\n      pop\n      pop\n      pop\n      swap3\n      swap2\n      pop\n      pop\n      jump\n        /* \"--CODEGEN--\":667:1275   */\n    tag_152:\n      0x00\n        /* \"--CODEGEN--\":778:781   */\n      dup3\n        /* \"--CODEGEN--\":771:775   */\n      0x1f\n        /* \"--CODEGEN--\":763:769   */\n      dup4\n        /* \"--CODEGEN--\":759:776   */\n      add\n        /* \"--CODEGEN--\":755:782   */\n      slt\n        /* \"--CODEGEN--\":745:747   */\n      tag_154\n      jumpi\n        /* \"--CODEGEN--\":796:797   */\n      0x00\n        /* \"--CODEGEN--\":793:794   */\n      dup1\n        /* \"--CODEGEN--\":786:798   */\n      revert\n        /* \"--CODEGEN--\":745:747   */\n    tag_154:\n        /* \"--CODEGEN--\":820:824   */\n      0x02\n        /* \"--CODEGEN--\":839:913   */\n      tag_155\n        /* \"--CODEGEN--\":854:912   */\n      tag_156\n        /* \"--CODEGEN--\":905:911   */\n      dup3\n        /* \"--CODEGEN--\":854:912   */\n      jump(tag_157)\n    tag_156:\n        /* \"--CODEGEN--\":839:913   */\n      jump(tag_145)\n    tag_155:\n        /* \"--CODEGEN--\":830:913   */\n      swap2\n      pop\n        /* \"--CODEGEN--\":930:935   */\n      dup2\n        /* \"--CODEGEN--\":989:995   */\n      dup4\n        /* \"--CODEGEN--\":1036:1039   */\n      dup6\n        /* \"--CODEGEN--\":1028:1032   */\n      0x20\n        /* \"--CODEGEN--\":1020:1026   */\n      dup5\n        /* \"--CODEGEN--\":1016:1033   */\n      mul\n        /* \"--CODEGEN--\":1011:1014   */\n      dup3\n        /* \"--CODEGEN--\":1007:1034   */\n      add\n        /* \"--CODEGEN--\":1004:1040   */\n      gt\n        /* \"--CODEGEN--\":1001:1003   */\n      iszero\n      tag_158\n      jumpi\n        /* \"--CODEGEN--\":1053:1054   */\n      0x00\n        /* \"--CODEGEN--\":1050:1051   */\n      dup1\n        /* \"--CODEGEN--\":1043:1055   */\n      revert\n        /* \"--CODEGEN--\":1001:1003   */\n    tag_158:\n        /* \"--CODEGEN--\":1078:1079   */\n      0x00\n        /* \"--CODEGEN--\":1063:1269   */\n    tag_159:\n        /* \"--CODEGEN--\":1088:1094   */\n      dup4\n        /* \"--CODEGEN--\":1085:1086   */\n      dup2\n        /* \"--CODEGEN--\":1082:1095   */\n      lt\n        /* \"--CODEGEN--\":1063:1269   */\n      iszero\n      tag_161\n      jumpi\n        /* \"--CODEGEN--\":1146:1149   */\n      dup2\n        /* \"--CODEGEN--\":1168:1205   */\n      tag_162\n        /* \"--CODEGEN--\":1201:1204   */\n      dup9\n        /* \"--CODEGEN--\":1189:1199   */\n      dup3\n        /* \"--CODEGEN--\":1168:1205   */\n      jump(tag_151)\n    tag_162:\n        /* \"--CODEGEN--\":1163:1166   */\n      dup5\n        /* \"--CODEGEN--\":1156:1206   */\n      mstore\n        /* \"--CODEGEN--\":1229:1233   */\n      0x20\n        /* \"--CODEGEN--\":1224:1227   */\n      dup5\n        /* \"--CODEGEN--\":1220:1234   */\n      add\n        /* \"--CODEGEN--\":1213:1234   */\n      swap4\n      pop\n        /* \"--CODEGEN--\":1257:1261   */\n      0x20\n        /* \"--CODEGEN--\":1252:1255   */\n      dup4\n        /* \"--CODEGEN--\":1248:1262   */\n      add\n        /* \"--CODEGEN--\":1241:1262   */\n      swap3\n      pop\n        /* \"--CODEGEN--\":1120:1269   */\n      pop\n        /* \"--CODEGEN--\":1110:1111   */\n      0x01\n        /* \"--CODEGEN--\":1107:1108   */\n      dup2\n        /* \"--CODEGEN--\":1103:1112   */\n      add\n        /* \"--CODEGEN--\":1098:1112   */\n      swap1\n      pop\n        /* \"--CODEGEN--\":1063:1269   */\n      jump(tag_159)\n    tag_161:\n        /* \"--CODEGEN--\":1067:1081   */\n      pop\n        /* \"--CODEGEN--\":738:1275   */\n      pop\n      pop\n      pop\n      swap3\n      swap2\n      pop\n      pop\n      jump\n        /* \"--CODEGEN--\":1312:1769   */\n    tag_163:\n      0x00\n        /* \"--CODEGEN--\":1422:1426   */\n      0x40\n        /* \"--CODEGEN--\":1410:1419   */\n      dup3\n        /* \"--CODEGEN--\":1405:1408   */\n      dup5\n        /* \"--CODEGEN--\":1401:1420   */\n      sub\n        /* \"--CODEGEN--\":1397:1427   */\n      slt\n        /* \"--CODEGEN--\":1394:1396   */\n      iszero\n      tag_165\n      jumpi\n        /* \"--CODEGEN--\":1440:1441   */\n      0x00\n        /* \"--CODEGEN--\":1437:1438   */\n      dup1\n        /* \"--CODEGEN--\":1430:1442   */\n      revert\n        /* \"--CODEGEN--\":1394:1396   */\n    tag_165:\n        /* \"--CODEGEN--\":1458:1478   */\n      tag_166\n        /* \"--CODEGEN--\":1473:1477   */\n      0x40\n        /* \"--CODEGEN--\":1458:1478   */\n      jump(tag_145)\n    tag_166:\n        /* \"--CODEGEN--\":1449:1478   */\n      swap1\n      pop\n        /* \"--CODEGEN--\":1525:1526   */\n      0x00\n        /* \"--CODEGEN--\":1557:1606   */\n      tag_167\n        /* \"--CODEGEN--\":1602:1605   */\n      dup5\n        /* \"--CODEGEN--\":1593:1599   */\n      dup3\n        /* \"--CODEGEN--\":1582:1591   */\n      dup6\n        /* \"--CODEGEN--\":1578:1600   */\n      add\n        /* \"--CODEGEN--\":1557:1606   */\n      jump(tag_151)\n    tag_167:\n        /* \"--CODEGEN--\":1550:1554   */\n      0x00\n        /* \"--CODEGEN--\":1543:1548   */\n      dup4\n        /* \"--CODEGEN--\":1539:1555   */\n      add\n        /* \"--CODEGEN--\":1532:1607   */\n      mstore\n        /* \"--CODEGEN--\":1488:1618   */\n      pop\n        /* \"--CODEGEN--\":1665:1667   */\n      0x20\n        /* \"--CODEGEN--\":1698:1747   */\n      tag_168\n        /* \"--CODEGEN--\":1743:1746   */\n      dup5\n        /* \"--CODEGEN--\":1734:1740   */\n      dup3\n        /* \"--CODEGEN--\":1723:1732   */\n      dup6\n        /* \"--CODEGEN--\":1719:1741   */\n      add\n        /* \"--CODEGEN--\":1698:1747   */\n      jump(tag_151)\n    tag_168:\n        /* \"--CODEGEN--\":1691:1695   */\n      0x20\n        /* \"--CODEGEN--\":1684:1689   */\n      dup4\n        /* \"--CODEGEN--\":1680:1696   */\n      add\n        /* \"--CODEGEN--\":1673:1748   */\n      mstore\n        /* \"--CODEGEN--\":1628:1759   */\n      pop\n        /* \"--CODEGEN--\":1388:1769   */\n      swap3\n      swap2\n      pop\n      pop\n      jump\n        /* \"--CODEGEN--\":1805:2300   */\n    tag_169:\n      0x00\n        /* \"--CODEGEN--\":1915:1919   */\n      0x80\n        /* \"--CODEGEN--\":1903:1912   */\n      dup3\n        /* \"--CODEGEN--\":1898:1901   */\n      dup5\n        /* \"--CODEGEN--\":1894:1913   */\n      sub\n        /* \"--CODEGEN--\":1890:1920   */\n      slt\n        /* \"--CODEGEN--\":1887:1889   */\n      iszero\n      tag_171\n      jumpi\n        /* \"--CODEGEN--\":1933:1934   */\n      0x00\n        /* \"--CODEGEN--\":1930:1931   */\n      dup1\n        /* \"--CODEGEN--\":1923:1935   */\n      revert\n        /* \"--CODEGEN--\":1887:1889   */\n    tag_171:\n        /* \"--CODEGEN--\":1951:1971   */\n      tag_172\n        /* \"--CODEGEN--\":1966:1970   */\n      0x40\n        /* \"--CODEGEN--\":1951:1971   */\n      jump(tag_145)\n    tag_172:\n        /* \"--CODEGEN--\":1942:1971   */\n      swap1\n      pop\n        /* \"--CODEGEN--\":2018:2019   */\n      0x00\n        /* \"--CODEGEN--\":2050:2118   */\n      tag_173\n        /* \"--CODEGEN--\":2114:2117   */\n      dup5\n        /* \"--CODEGEN--\":2105:2111   */\n      dup3\n        /* \"--CODEGEN--\":2094:2103   */\n      dup6\n        /* \"--CODEGEN--\":2090:2112   */\n      add\n        /* \"--CODEGEN--\":2050:2118   */\n      jump(tag_152)\n    tag_173:\n        /* \"--CODEGEN--\":2043:2047   */\n      0x00\n        /* \"--CODEGEN--\":2036:2041   */\n      dup4\n        /* \"--CODEGEN--\":2032:2048   */\n      add\n        /* \"--CODEGEN--\":2025:2119   */\n      mstore\n        /* \"--CODEGEN--\":1981:2130   */\n      pop\n        /* \"--CODEGEN--\":2177:2179   */\n      0x40\n        /* \"--CODEGEN--\":2210:2278   */\n      tag_174\n        /* \"--CODEGEN--\":2274:2277   */\n      dup5\n        /* \"--CODEGEN--\":2265:2271   */\n      dup3\n        /* \"--CODEGEN--\":2254:2263   */\n      dup6\n        /* \"--CODEGEN--\":2250:2272   */\n      add\n        /* \"--CODEGEN--\":2210:2278   */\n      jump(tag_152)\n    tag_174:\n        /* \"--CODEGEN--\":2203:2207   */\n      0x20\n        /* \"--CODEGEN--\":2196:2201   */\n      dup4\n        /* \"--CODEGEN--\":2192:2208   */\n      add\n        /* \"--CODEGEN--\":2185:2279   */\n      mstore\n        /* \"--CODEGEN--\":2140:2290   */\n      pop\n        /* \"--CODEGEN--\":1881:2300   */\n      swap3\n      swap2\n      pop\n      pop\n      jump\n        /* \"--CODEGEN--\":2335:3001   */\n    tag_175:\n      0x00\n        /* \"--CODEGEN--\":2447:2453   */\n      0x0100\n        /* \"--CODEGEN--\":2435:2444   */\n      dup3\n        /* \"--CODEGEN--\":2430:2433   */\n      dup5\n        /* \"--CODEGEN--\":2426:2445   */\n      sub\n        /* \"--CODEGEN--\":2422:2454   */\n      slt\n        /* \"--CODEGEN--\":2419:2421   */\n      iszero\n      tag_177\n      jumpi\n        /* \"--CODEGEN--\":2467:2468   */\n      0x00\n        /* \"--CODEGEN--\":2464:2465   */\n      dup1\n        /* \"--CODEGEN--\":2457:2469   */\n      revert\n        /* \"--CODEGEN--\":2419:2421   */\n    tag_177:\n        /* \"--CODEGEN--\":2485:2505   */\n      tag_178\n        /* \"--CODEGEN--\":2500:2504   */\n      0x60\n        /* \"--CODEGEN--\":2485:2505   */\n      jump(tag_145)\n    tag_178:\n        /* \"--CODEGEN--\":2476:2505   */\n      swap1\n      pop\n        /* \"--CODEGEN--\":2552:2553   */\n      0x00\n        /* \"--CODEGEN--\":2584:2654   */\n      tag_179\n        /* \"--CODEGEN--\":2650:2653   */\n      dup5\n        /* \"--CODEGEN--\":2641:2647   */\n      dup3\n        /* \"--CODEGEN--\":2630:2639   */\n      dup6\n        /* \"--CODEGEN--\":2626:2648   */\n      add\n        /* \"--CODEGEN--\":2584:2654   */\n      jump(tag_163)\n    tag_179:\n        /* \"--CODEGEN--\":2577:2581   */\n      0x00\n        /* \"--CODEGEN--\":2570:2575   */\n      dup4\n        /* \"--CODEGEN--\":2566:2582   */\n      add\n        /* \"--CODEGEN--\":2559:2655   */\n      mstore\n        /* \"--CODEGEN--\":2515:2666   */\n      pop\n        /* \"--CODEGEN--\":2713:2715   */\n      0x40\n        /* \"--CODEGEN--\":2746:2816   */\n      tag_180\n        /* \"--CODEGEN--\":2812:2815   */\n      dup5\n        /* \"--CODEGEN--\":2803:2809   */\n      dup3\n        /* \"--CODEGEN--\":2792:2801   */\n      dup6\n        /* \"--CODEGEN--\":2788:2810   */\n      add\n        /* \"--CODEGEN--\":2746:2816   */\n      jump(tag_169)\n    tag_180:\n        /* \"--CODEGEN--\":2739:2743   */\n      0x20\n        /* \"--CODEGEN--\":2732:2737   */\n      dup4\n        /* \"--CODEGEN--\":2728:2744   */\n      add\n        /* \"--CODEGEN--\":2721:2817   */\n      mstore\n        /* \"--CODEGEN--\":2676:2828   */\n      pop\n        /* \"--CODEGEN--\":2875:2878   */\n      0xc0\n        /* \"--CODEGEN--\":2909:2979   */\n      tag_181\n        /* \"--CODEGEN--\":2975:2978   */\n      dup5\n        /* \"--CODEGEN--\":2966:2972   */\n      dup3\n        /* \"--CODEGEN--\":2955:2964   */\n      dup6\n        /* \"--CODEGEN--\":2951:2973   */\n      add\n        /* \"--CODEGEN--\":2909:2979   */\n      jump(tag_163)\n    tag_181:\n        /* \"--CODEGEN--\":2902:2906   */\n      0x40\n        /* \"--CODEGEN--\":2895:2900   */\n      dup4\n        /* \"--CODEGEN--\":2891:2907   */\n      add\n        /* \"--CODEGEN--\":2884:2980   */\n      mstore\n        /* \"--CODEGEN--\":2838:2991   */\n      pop\n        /* \"--CODEGEN--\":2413:3001   */\n      swap3\n      swap2\n      pop\n      pop\n      jump\n        /* \"--CODEGEN--\":3008:3138   */\n    tag_151:\n      0x00\n        /* \"--CODEGEN--\":3088:3094   */\n      dup2\n        /* \"--CODEGEN--\":3075:3095   */\n      calldataload\n        /* \"--CODEGEN--\":3066:3095   */\n      swap1\n      pop\n        /* \"--CODEGEN--\":3100:3133   */\n      tag_183\n        /* \"--CODEGEN--\":3127:3132   */\n      dup2\n        /* \"--CODEGEN--\":3100:3133   */\n      jump(tag_184)\n    tag_183:\n        /* \"--CODEGEN--\":3060:3138   */\n      swap3\n      swap2\n      pop\n      pop\n      jump\n        /* \"--CODEGEN--\":3145:3605   */\n    tag_6:\n      0x00\n      dup1\n        /* \"--CODEGEN--\":3312:3315   */\n      0x0120\n        /* \"--CODEGEN--\":3300:3309   */\n      dup4\n        /* \"--CODEGEN--\":3291:3298   */\n      dup6\n        /* \"--CODEGEN--\":3287:3310   */\n      sub\n        /* \"--CODEGEN--\":3283:3316   */\n      slt\n        /* \"--CODEGEN--\":3280:3282   */\n      iszero\n      tag_186\n      jumpi\n        /* \"--CODEGEN--\":3329:3330   */\n      0x00\n        /* \"--CODEGEN--\":3326:3327   */\n      dup1\n        /* \"--CODEGEN--\":3319:3331   */\n      revert\n        /* \"--CODEGEN--\":3280:3282   */\n    tag_186:\n        /* \"--CODEGEN--\":3364:3365   */\n      0x00\n        /* \"--CODEGEN--\":3381:3457   */\n      tag_187\n        /* \"--CODEGEN--\":3449:3456   */\n      dup6\n        /* \"--CODEGEN--\":3440:3446   */\n      dup3\n        /* \"--CODEGEN--\":3429:3438   */\n      dup7\n        /* \"--CODEGEN--\":3425:3447   */\n      add\n        /* \"--CODEGEN--\":3381:3457   */\n      jump(tag_175)\n    tag_187:\n        /* \"--CODEGEN--\":3371:3457   */\n      swap3\n      pop\n        /* \"--CODEGEN--\":3343:3463   */\n      pop\n        /* \"--CODEGEN--\":3494:3497   */\n      0x0100\n        /* \"--CODEGEN--\":3513:3589   */\n      tag_188\n        /* \"--CODEGEN--\":3581:3588   */\n      dup6\n        /* \"--CODEGEN--\":3572:3578   */\n      dup3\n        /* \"--CODEGEN--\":3561:3570   */\n      dup7\n        /* \"--CODEGEN--\":3557:3579   */\n      add\n        /* \"--CODEGEN--\":3513:3589   */\n      jump(tag_139)\n    tag_188:\n        /* \"--CODEGEN--\":3503:3589   */\n      swap2\n      pop\n        /* \"--CODEGEN--\":3473:3595   */\n      pop\n        /* \"--CODEGEN--\":3274:3605   */\n      swap3\n      pop\n      swap3\n      swap1\n      pop\n      jump\n        /* \"--CODEGEN--\":3612:3716   */\n    tag_189:\n        /* \"--CODEGEN--\":3689:3710   */\n      tag_191\n        /* \"--CODEGEN--\":3704:3709   */\n      dup2\n        /* \"--CODEGEN--\":3689:3710   */\n      jump(tag_192)\n    tag_191:\n        /* \"--CODEGEN--\":3684:3687   */\n      dup3\n        /* \"--CODEGEN--\":3677:3711   */\n      mstore\n        /* \"--CODEGEN--\":3671:3716   */\n      pop\n      pop\n      jump\n        /* \"--CODEGEN--\":3724:4095   */\n    tag_193:\n      0x00\n        /* \"--CODEGEN--\":3884:3951   */\n      tag_195\n        /* \"--CODEGEN--\":3948:3950   */\n      0x22\n        /* \"--CODEGEN--\":3943:3946   */\n      dup4\n        /* \"--CODEGEN--\":3884:3951   */\n      jump(tag_196)\n    tag_195:\n        /* \"--CODEGEN--\":3877:3951   */\n      swap2\n      pop\n        /* \"--CODEGEN--\":3984:4018   */\n      0x5472616e73616374696f6e207375636365737366756c6c792076657269666965\n        /* \"--CODEGEN--\":3980:3981   */\n      0x00\n        /* \"--CODEGEN--\":3975:3978   */\n      dup4\n        /* \"--CODEGEN--\":3971:3982   */\n      add\n        /* \"--CODEGEN--\":3964:4019   */\n      mstore\n        /* \"--CODEGEN--\":4053:4057   */\n      0x642e000000000000000000000000000000000000000000000000000000000000\n        /* \"--CODEGEN--\":4048:4050   */\n      0x20\n        /* \"--CODEGEN--\":4043:4046   */\n      dup4\n        /* \"--CODEGEN--\":4039:4051   */\n      add\n        /* \"--CODEGEN--\":4032:4058   */\n      mstore\n        /* \"--CODEGEN--\":4086:4088   */\n      0x40\n        /* \"--CODEGEN--\":4081:4084   */\n      dup3\n        /* \"--CODEGEN--\":4077:4089   */\n      add\n        /* \"--CODEGEN--\":4070:4089   */\n      swap1\n      pop\n        /* \"--CODEGEN--\":3870:4095   */\n      swap2\n      swap1\n      pop\n      jump\n        /* \"--CODEGEN--\":4103:4304   */\n    tag_9:\n      0x00\n        /* \"--CODEGEN--\":4215:4217   */\n      0x20\n        /* \"--CODEGEN--\":4204:4213   */\n      dup3\n        /* \"--CODEGEN--\":4200:4218   */\n      add\n        /* \"--CODEGEN--\":4192:4218   */\n      swap1\n      pop\n        /* \"--CODEGEN--\":4229:4294   */\n      tag_198\n        /* \"--CODEGEN--\":4291:4292   */\n      0x00\n        /* \"--CODEGEN--\":4280:4289   */\n      dup4\n        /* \"--CODEGEN--\":4276:4293   */\n      add\n        /* \"--CODEGEN--\":4267:4273   */\n      dup5\n        /* \"--CODEGEN--\":4229:4294   */\n      jump(tag_189)\n    tag_198:\n        /* \"--CODEGEN--\":4186:4304   */\n      swap3\n      swap2\n      pop\n      pop\n      jump\n        /* \"--CODEGEN--\":4311:4718   */\n    tag_21:\n      0x00\n        /* \"--CODEGEN--\":4502:4504   */\n      0x20\n        /* \"--CODEGEN--\":4491:4500   */\n      dup3\n        /* \"--CODEGEN--\":4487:4505   */\n      add\n        /* \"--CODEGEN--\":4479:4505   */\n      swap1\n      pop\n        /* \"--CODEGEN--\":4552:4561   */\n      dup2\n        /* \"--CODEGEN--\":4546:4550   */\n      dup2\n        /* \"--CODEGEN--\":4542:4562   */\n      sub\n        /* \"--CODEGEN--\":4538:4539   */\n      0x00\n        /* \"--CODEGEN--\":4527:4536   */\n      dup4\n        /* \"--CODEGEN--\":4523:4540   */\n      add\n        /* \"--CODEGEN--\":4516:4563   */\n      mstore\n        /* \"--CODEGEN--\":4577:4708   */\n      tag_200\n        /* \"--CODEGEN--\":4703:4707   */\n      dup2\n        /* \"--CODEGEN--\":4577:4708   */\n      jump(tag_193)\n    tag_200:\n        /* \"--CODEGEN--\":4569:4708   */\n      swap1\n      pop\n        /* \"--CODEGEN--\":4473:4718   */\n      swap2\n      swap1\n      pop\n      jump\n        /* \"--CODEGEN--\":4725:4981   */\n    tag_145:\n      0x00\n        /* \"--CODEGEN--\":4787:4789   */\n      0x40\n        /* \"--CODEGEN--\":4781:4790   */\n      mload\n        /* \"--CODEGEN--\":4771:4790   */\n      swap1\n      pop\n        /* \"--CODEGEN--\":4825:4829   */\n      dup2\n        /* \"--CODEGEN--\":4817:4823   */\n      dup2\n        /* \"--CODEGEN--\":4813:4830   */\n      add\n        /* \"--CODEGEN--\":4924:4930   */\n      dup2\n        /* \"--CODEGEN--\":4912:4922   */\n      dup2\n        /* \"--CODEGEN--\":4909:4931   */\n      lt\n        /* \"--CODEGEN--\":4888:4906   */\n      0xffffffffffffffff\n        /* \"--CODEGEN--\":4876:4886   */\n      dup3\n        /* \"--CODEGEN--\":4873:4907   */\n      gt\n        /* \"--CODEGEN--\":4870:4932   */\n      or\n        /* \"--CODEGEN--\":4867:4869   */\n      iszero\n      tag_202\n      jumpi\n        /* \"--CODEGEN--\":4945:4946   */\n      0x00\n        /* \"--CODEGEN--\":4942:4943   */\n      dup1\n        /* \"--CODEGEN--\":4935:4947   */\n      revert\n        /* \"--CODEGEN--\":4867:4869   */\n    tag_202:\n        /* \"--CODEGEN--\":4965:4975   */\n      dup1\n        /* \"--CODEGEN--\":4961:4963   */\n      0x40\n        /* \"--CODEGEN--\":4954:4976   */\n      mstore\n        /* \"--CODEGEN--\":4765:4981   */\n      pop\n      swap2\n      swap1\n      pop\n      jump\n        /* \"--CODEGEN--\":4988:5232   */\n    tag_144:\n      0x00\n        /* \"--CODEGEN--\":5145:5163   */\n      0xffffffffffffffff\n        /* \"--CODEGEN--\":5137:5143   */\n      dup3\n        /* \"--CODEGEN--\":5134:5164   */\n      gt\n        /* \"--CODEGEN--\":5131:5133   */\n      iszero\n      tag_204\n      jumpi\n        /* \"--CODEGEN--\":5177:5178   */\n      0x00\n        /* \"--CODEGEN--\":5174:5175   */\n      dup1\n        /* \"--CODEGEN--\":5167:5179   */\n      revert\n        /* \"--CODEGEN--\":5131:5133   */\n    tag_204:\n        /* \"--CODEGEN--\":5212:5216   */\n      0x20\n        /* \"--CODEGEN--\":5204:5210   */\n      dup3\n        /* \"--CODEGEN--\":5200:5217   */\n      mul\n        /* \"--CODEGEN--\":5192:5217   */\n      swap1\n      pop\n        /* \"--CODEGEN--\":5068:5232   */\n      swap2\n      swap1\n      pop\n      jump\n        /* \"--CODEGEN--\":5239:5479   */\n    tag_157:\n      0x00\n        /* \"--CODEGEN--\":5392:5410   */\n      0xffffffffffffffff\n        /* \"--CODEGEN--\":5384:5390   */\n      dup3\n        /* \"--CODEGEN--\":5381:5411   */\n      gt\n        /* \"--CODEGEN--\":5378:5380   */\n      iszero\n      tag_206\n      jumpi\n        /* \"--CODEGEN--\":5424:5425   */\n      0x00\n        /* \"--CODEGEN--\":5421:5422   */\n      dup1\n        /* \"--CODEGEN--\":5414:5426   */\n      revert\n        /* \"--CODEGEN--\":5378:5380   */\n    tag_206:\n        /* \"--CODEGEN--\":5459:5463   */\n      0x20\n        /* \"--CODEGEN--\":5451:5457   */\n      dup3\n        /* \"--CODEGEN--\":5447:5464   */\n      mul\n        /* \"--CODEGEN--\":5439:5464   */\n      swap1\n      pop\n        /* \"--CODEGEN--\":5315:5479   */\n      swap2\n      swap1\n      pop\n      jump\n        /* \"--CODEGEN--\":5487:5650   */\n    tag_196:\n      0x00\n        /* \"--CODEGEN--\":5602:5608   */\n      dup3\n        /* \"--CODEGEN--\":5597:5600   */\n      dup3\n        /* \"--CODEGEN--\":5590:5609   */\n      mstore\n        /* \"--CODEGEN--\":5639:5643   */\n      0x20\n        /* \"--CODEGEN--\":5634:5637   */\n      dup3\n        /* \"--CODEGEN--\":5630:5644   */\n      add\n        /* \"--CODEGEN--\":5615:5644   */\n      swap1\n      pop\n        /* \"--CODEGEN--\":5583:5650   */\n      swap3\n      swap2\n      pop\n      pop\n      jump\n        /* \"--CODEGEN--\":5658:5743   */\n    tag_192:\n      0x00\n        /* \"--CODEGEN--\":5731:5736   */\n      dup2\n        /* \"--CODEGEN--\":5724:5737   */\n      iszero\n        /* \"--CODEGEN--\":5717:5738   */\n      iszero\n        /* \"--CODEGEN--\":5706:5738   */\n      swap1\n      pop\n        /* \"--CODEGEN--\":5700:5743   */\n      swap2\n      swap1\n      pop\n      jump\n        /* \"--CODEGEN--\":5750:5822   */\n    tag_209:\n      0x00\n        /* \"--CODEGEN--\":5812:5817   */\n      dup2\n        /* \"--CODEGEN--\":5801:5817   */\n      swap1\n      pop\n        /* \"--CODEGEN--\":5795:5822   */\n      swap2\n      swap1\n      pop\n      jump\n        /* \"--CODEGEN--\":5829:5946   */\n    tag_184:\n        /* \"--CODEGEN--\":5898:5922   */\n      tag_212\n        /* \"--CODEGEN--\":5916:5921   */\n      dup2\n        /* \"--CODEGEN--\":5898:5922   */\n      jump(tag_209)\n    tag_212:\n        /* \"--CODEGEN--\":5891:5896   */\n      dup2\n        /* \"--CODEGEN--\":5888:5923   */\n      eq\n        /* \"--CODEGEN--\":5878:5880   */\n      tag_213\n      jumpi\n        /* \"--CODEGEN--\":5937:5938   */\n      0x00\n        /* \"--CODEGEN--\":5934:5935   */\n      dup1\n        /* \"--CODEGEN--\":5927:5939   */\n      revert\n        /* \"--CODEGEN--\":5878:5880   */\n    tag_213:\n        /* \"--CODEGEN--\":5872:5946   */\n      pop\n      jump\n\n    auxdata: 0xa2646970667358221220a87886bef889ec55f6057bb2c2cbfd8a963d98075f84dd8d519ef379da60520264736f6c63430006010033\n}\n","bytecode":{"linkReferences":{},"object":"608060405234801561001057600080fd5b50611114806100206000396000f3fe608060405234801561001057600080fd5b506004361061002b5760003560e01c8063f48d772914610030575b600080fd5b61004a60048036036100459190810190610f41565b610060565b6040516100579190610ff4565b60405180910390f35b6000606060016040519080825280602002602001820160405280156100945781602001602082028038833980820191505090505b50905060008090505b60018110156100dc578381600181106100b257fe5b60200201518282815181106100c357fe5b602002602001018181525050808060010191505061009d565b5060006100e9828661013a565b141561012e577f3f3cfdb26fb5f9f1786ab4f1a1f9cd4c0b5e726cbdfc26e495261731aad44e3960405161011c9061100f565b60405180910390a16001915050610134565b60009150505b92915050565b6000807f30644e72e131a029b85045b68181585d2833e84879b9709143e1f593f00000019050610168610c22565b6101706102ac565b905080608001515160018651011461018757600080fd5b61018f610c69565b6040518060400160405280600081526020016000815250905060008090505b865181101561022557838782815181106101c457fe5b6020026020010151106101d657600080fd5b61021682610211856080015160018501815181106101f057fe5b60200260200101518a858151811061020457fe5b6020026020010151610688565b61071c565b915080806001019150506101ae565b5061024881836080015160008151811061023b57fe5b602002602001015161071c565b905061028e85600001518660200151610260846107cf565b85604001516102728a604001516107cf565b876060015161028489600001516107cf565b8960200151610869565b61029e57600193505050506102a6565b600093505050505b92915050565b6102b4610c22565b60405180604001604052807f1936c240636390dc823e3a728e94b208eb53c6756d81da57ec3425e05d43ac1081526020017f2d70ff78e8216bf29d58923a686d9738278b8ce2fd822e197c85b09286d155668152508160000181905250604051806040016040528060405180604001604052807f2b4daf047abe2e7f0b311118c1b963b63695dc0d769cea78849604434de055bf81526020017f29c13ecb6f33dbc4b3b8a02e2e255511ce4c26a8a2f299efcc94caf2de4fce00815250815260200160405180604001604052807f1da9020008df7f549751f8a251af3b2dc4a2ad3e0870de54acaedd9fc1b47e1781526020017f25ea0d7e2b29de431b86a943db30dbf4d98f68df9ca8a9628d14d1591e817d908152508152508160200181905250604051806040016040528060405180604001604052807f011016e22ae045444f50fb80f246ec486c7e02af09132cd38c4fcf484983e4f281526020017ee83c788c2878d1d5eba3ed49b0d81e4c0487dedc3e4d1c2baab5833785b62f815250815260200160405180604001604052807f05eb89e741ed5b5d611cebf92d1ed02cd6f3311089f0d400df7d9ced5a48fd4181526020017f132a90a3b0d369ccd66e2a5ba04a935e44d8ad5dca93a76bba592a578130a9118152508152508160400181905250604051806040016040528060405180604001604052807f065f6a3323a2abffd621fc263f348eb914904b68d5897729ae34a6b9d33f085281526020017f0c3b60f59d3bd50328a04c0ff6d979199685d0526f89f6ac29d6174ce24707a2815250815260200160405180604001604052807f26e7ebce2b44efef6b6315938e33f0a8ecc82dbad635c9efa681ed85bbb5998281526020017f12e0f3721230a0f38f6c9913048d5230fd2615ef3ff7f6ee4b20dfe0bdea1a868152508152508160600181905250600260405190808252806020026020018201604052801561059a57816020015b610587610c83565b81526020019060019003908161057f5790505b50816080018190525060405180604001604052807f07f481a1cb7cea7eb760d12aa4d1b61ab95a34d63783e68b0bbc9a524c38813581526020017f0b723281a130974c10d5bc702601b943cfb263864afd4ce5c4c0e61d8619e132815250816080015160008151811061060957fe5b602002602001018190525060405180604001604052807f1f86c8f7610cced630b8f704def6d0756a43c68d012b98b3801c6b564900984981526020017f2b6b7f92ab24620816bde4842e27fa635932dcecdab53c799403f5bca9718914815250816080015160018151811061067a57fe5b602002602001018190525090565b610690610c69565b610698610c9d565b8360000151816000600381106106aa57fe5b6020020181815250508360200151816001600381106106c557fe5b60200201818152505082816002600381106106dc57fe5b6020020181815250506000606083608084600060076107d05a03f19050806000811461070757610709565bfe5b508061071457600080fd5b505092915050565b610724610c69565b61072c610cbf565b83600001518160006004811061073e57fe5b60200201818152505083602001518160016004811061075957fe5b60200201818152505082600001518160026004811061077457fe5b60200201818152505082602001518160036004811061078f57fe5b602002018181525050600060608360c084600060066107d05a03f1905080600081146107ba576107bc565bfe5b50806107c757600080fd5b505092915050565b6107d7610c69565b60007f30644e72e131a029b85045b68181585d97816a916871ca8d3c208c16d87cfd47905060008360000151148015610814575060008360200151145b15610838576040518060400160405280600081526020016000815250915050610864565b6040518060400160405280846000015181526020018285602001518161085a57fe5b0683038152509150505b919050565b6000606060046040519080825280602002602001820160405280156108a857816020015b610895610c83565b81526020019060019003908161088d5790505b509050606060046040519080825280602002602001820160405280156108e857816020015b6108d5610ce1565b8152602001906001900390816108cd5790505b5090508a826000815181106108f957fe5b6020026020010181905250888260018151811061091257fe5b6020026020010181905250868260028151811061092b57fe5b6020026020010181905250848260038151811061094457fe5b6020026020010181905250898160008151811061095d57fe5b6020026020010181905250878160018151811061097657fe5b6020026020010181905250858160028151811061098f57fe5b602002602001018190525083816003815181106109a857fe5b60200260200101819052506109bd82826109cd565b9250505098975050505050505050565b600081518351146109dd57600080fd5b6000835190506000600682029050606081604051908082528060200260200182016040528015610a1c5781602001602082028038833980820191505090505b50905060008090505b83811015610bc257868181518110610a3957fe5b602002602001015160000151826000600684020181518110610a5757fe5b602002602001018181525050868181518110610a6f57fe5b602002602001015160200151826001600684020181518110610a8d57fe5b602002602001018181525050858181518110610aa557fe5b602002602001015160000151600060028110610abd57fe5b6020020151826002600684020181518110610ad457fe5b602002602001018181525050858181518110610aec57fe5b602002602001015160000151600160028110610b0457fe5b6020020151826003600684020181518110610b1b57fe5b602002602001018181525050858181518110610b3357fe5b602002602001015160200151600060028110610b4b57fe5b6020020151826004600684020181518110610b6257fe5b602002602001018181525050858181518110610b7a57fe5b602002602001015160200151600160028110610b9257fe5b6020020151826005600684020181518110610ba957fe5b6020026020010181815250508080600101915050610a25565b50610bcb610d07565b60006020826020860260208601600060086107d05a03f190508060008114610bf257610bf4565bfe5b5080610bff57600080fd5b600082600060018110610c0e57fe5b602002015114159550505050505092915050565b6040518060a00160405280610c35610c83565b8152602001610c42610ce1565b8152602001610c4f610ce1565b8152602001610c5c610ce1565b8152602001606081525090565b604051806040016040528060008152602001600081525090565b604051806040016040528060008152602001600081525090565b6040518060600160405280600390602082028038833980820191505090505090565b6040518060800160405280600490602082028038833980820191505090505090565b6040518060400160405280610cf4610d29565b8152602001610d01610d29565b81525090565b6040518060200160405280600190602082028038833980820191505090505090565b6040518060400160405280600290602082028038833980820191505090505090565b600082601f830112610d5c57600080fd5b6001610d6f610d6a8261105c565b61102f565b91508183856020840282011115610d8557600080fd5b60005b83811015610db55781610d9b8882610f2c565b845260208401935060208301925050600181019050610d88565b5050505092915050565b600082601f830112610dd057600080fd5b6002610de3610dde8261107e565b61102f565b91508183856020840282011115610df957600080fd5b60005b83811015610e295781610e0f8882610f2c565b845260208401935060208301925050600181019050610dfc565b5050505092915050565b600060408284031215610e4557600080fd5b610e4f604061102f565b90506000610e5f84828501610f2c565b6000830152506020610e7384828501610f2c565b60208301525092915050565b600060808284031215610e9157600080fd5b610e9b604061102f565b90506000610eab84828501610dbf565b6000830152506040610ebf84828501610dbf565b60208301525092915050565b60006101008284031215610ede57600080fd5b610ee8606061102f565b90506000610ef884828501610e33565b6000830152506040610f0c84828501610e7f565b60208301525060c0610f2084828501610e33565b60408301525092915050565b600081359050610f3b816110c7565b92915050565b6000806101208385031215610f5557600080fd5b6000610f6385828601610ecb565b925050610100610f7585828601610d4b565b9150509250929050565b610f88816110b1565b82525050565b6000610f9b6022836110a0565b91507f5472616e73616374696f6e207375636365737366756c6c79207665726966696560008301527f642e0000000000000000000000000000000000000000000000000000000000006020830152604082019050919050565b60006020820190506110096000830184610f7f565b92915050565b6000602082019050818103600083015261102881610f8e565b9050919050565b6000604051905081810181811067ffffffffffffffff8211171561105257600080fd5b8060405250919050565b600067ffffffffffffffff82111561107357600080fd5b602082029050919050565b600067ffffffffffffffff82111561109557600080fd5b602082029050919050565b600082825260208201905092915050565b60008115159050919050565b6000819050919050565b6110d0816110bd565b81146110db57600080fd5b5056fea2646970667358221220a87886bef889ec55f6057bb2c2cbfd8a963d98075f84dd8d519ef379da60520264736f6c63430006010033","opcodes":"PUSH1 0x80 PUSH1 0x40 MSTORE CALLVALUE DUP1 ISZERO PUSH2 0x10 JUMPI PUSH1 0x0 DUP1 REVERT JUMPDEST POP PUSH2 0x1114 DUP1 PUSH2 0x20 PUSH1 0x0 CODECOPY PUSH1 0x0 RETURN INVALID PUSH1 0x80 PUSH1 0x40 MSTORE CALLVALUE DUP1 ISZERO PUSH2 0x10 JUMPI PUSH1 0x0 DUP1 REVERT JUMPDEST POP PUSH1 0x4 CALLDATASIZE LT PUSH2 0x2B JUMPI PUSH1 0x0 CALLDATALOAD PUSH1 0xE0 SHR DUP1 PUSH4 0xF48D7729 EQ PUSH2 0x30 JUMPI JUMPDEST PUSH1 0x0 DUP1 REVERT JUMPDEST PUSH2 0x4A PUSH1 0x4 DUP1 CALLDATASIZE SUB PUSH2 0x45 SWAP2 SWAP1 DUP2 ADD SWAP1 PUSH2 0xF41 JUMP JUMPDEST PUSH2 0x60 JUMP JUMPDEST PUSH1 0x40 MLOAD PUSH2 0x57 SWAP2 SWAP1 PUSH2 0xFF4 JUMP JUMPDEST PUSH1 0x40 MLOAD DUP1 SWAP2 SUB SWAP1 RETURN JUMPDEST PUSH1 0x0 PUSH1 0x60 PUSH1 0x1 PUSH1 0x40 MLOAD SWAP1 DUP1 DUP3 MSTORE DUP1 PUSH1 0x20 MUL PUSH1 0x20 ADD DUP3 ADD PUSH1 0x40 MSTORE DUP1 ISZERO PUSH2 0x94 JUMPI DUP2 PUSH1 0x20 ADD PUSH1 0x20 DUP3 MUL DUP1 CODESIZE DUP4 CODECOPY DUP1 DUP3 ADD SWAP2 POP POP SWAP1 POP JUMPDEST POP SWAP1 POP PUSH1 0x0 DUP1 SWAP1 POP JUMPDEST PUSH1 0x1 DUP2 LT ISZERO PUSH2 0xDC JUMPI DUP4 DUP2 PUSH1 0x1 DUP2 LT PUSH2 0xB2 JUMPI INVALID JUMPDEST PUSH1 0x20 MUL ADD MLOAD DUP3 DUP3 DUP2 MLOAD DUP2 LT PUSH2 0xC3 JUMPI INVALID JUMPDEST PUSH1 0x20 MUL PUSH1 0x20 ADD ADD DUP2 DUP2 MSTORE POP POP DUP1 DUP1 PUSH1 0x1 ADD SWAP2 POP POP PUSH2 0x9D JUMP JUMPDEST POP PUSH1 0x0 PUSH2 0xE9 DUP3 DUP7 PUSH2 0x13A JUMP JUMPDEST EQ ISZERO PUSH2 0x12E JUMPI PUSH32 0x3F3CFDB26FB5F9F1786AB4F1A1F9CD4C0B5E726CBDFC26E495261731AAD44E39 PUSH1 0x40 MLOAD PUSH2 0x11C SWAP1 PUSH2 0x100F JUMP JUMPDEST PUSH1 0x40 MLOAD DUP1 SWAP2 SUB SWAP1 LOG1 PUSH1 0x1 SWAP2 POP POP PUSH2 0x134 JUMP JUMPDEST PUSH1 0x0 SWAP2 POP POP JUMPDEST SWAP3 SWAP2 POP POP JUMP JUMPDEST PUSH1 0x0 DUP1 PUSH32 0x30644E72E131A029B85045B68181585D2833E84879B9709143E1F593F0000001 SWAP1 POP PUSH2 0x168 PUSH2 0xC22 JUMP JUMPDEST PUSH2 0x170 PUSH2 0x2AC JUMP JUMPDEST SWAP1 POP DUP1 PUSH1 0x80 ADD MLOAD MLOAD PUSH1 0x1 DUP7 MLOAD ADD EQ PUSH2 0x187 JUMPI PUSH1 0x0 DUP1 REVERT JUMPDEST PUSH2 0x18F PUSH2 0xC69 JUMP JUMPDEST PUSH1 0x40 MLOAD DUP1 PUSH1 0x40 ADD PUSH1 0x40 MSTORE DUP1 PUSH1 0x0 DUP2 MSTORE PUSH1 0x20 ADD PUSH1 0x0 DUP2 MSTORE POP SWAP1 POP PUSH1 0x0 DUP1 SWAP1 POP JUMPDEST DUP7 MLOAD DUP2 LT ISZERO PUSH2 0x225 JUMPI DUP4 DUP8 DUP3 DUP2 MLOAD DUP2 LT PUSH2 0x1C4 JUMPI INVALID JUMPDEST PUSH1 0x20 MUL PUSH1 0x20 ADD ADD MLOAD LT PUSH2 0x1D6 JUMPI PUSH1 0x0 DUP1 REVERT JUMPDEST PUSH2 0x216 DUP3 PUSH2 0x211 DUP6 PUSH1 0x80 ADD MLOAD PUSH1 0x1 DUP6 ADD DUP2 MLOAD DUP2 LT PUSH2 0x1F0 JUMPI INVALID JUMPDEST PUSH1 0x20 MUL PUSH1 0x20 ADD ADD MLOAD DUP11 DUP6 DUP2 MLOAD DUP2 LT PUSH2 0x204 JUMPI INVALID JUMPDEST PUSH1 0x20 MUL PUSH1 0x20 ADD ADD MLOAD PUSH2 0x688 JUMP JUMPDEST PUSH2 0x71C JUMP JUMPDEST SWAP2 POP DUP1 DUP1 PUSH1 0x1 ADD SWAP2 POP POP PUSH2 0x1AE JUMP JUMPDEST POP PUSH2 0x248 DUP2 DUP4 PUSH1 0x80 ADD MLOAD PUSH1 0x0 DUP2 MLOAD DUP2 LT PUSH2 0x23B JUMPI INVALID JUMPDEST PUSH1 0x20 MUL PUSH1 0x20 ADD ADD MLOAD PUSH2 0x71C JUMP JUMPDEST SWAP1 POP PUSH2 0x28E DUP6 PUSH1 0x0 ADD MLOAD DUP7 PUSH1 0x20 ADD MLOAD PUSH2 0x260 DUP5 PUSH2 0x7CF JUMP JUMPDEST DUP6 PUSH1 0x40 ADD MLOAD PUSH2 0x272 DUP11 PUSH1 0x40 ADD MLOAD PUSH2 0x7CF JUMP JUMPDEST DUP8 PUSH1 0x60 ADD MLOAD PUSH2 0x284 DUP10 PUSH1 0x0 ADD MLOAD PUSH2 0x7CF JUMP JUMPDEST DUP10 PUSH1 0x20 ADD MLOAD PUSH2 0x869 JUMP JUMPDEST PUSH2 0x29E JUMPI PUSH1 0x1 SWAP4 POP POP POP POP PUSH2 0x2A6 JUMP JUMPDEST PUSH1 0x0 SWAP4 POP POP POP POP JUMPDEST SWAP3 SWAP2 POP POP JUMP JUMPDEST PUSH2 0x2B4 PUSH2 0xC22 JUMP JUMPDEST PUSH1 0x40 MLOAD DUP1 PUSH1 0x40 ADD PUSH1 0x40 MSTORE DUP1 PUSH32 0x1936C240636390DC823E3A728E94B208EB53C6756D81DA57EC3425E05D43AC10 DUP2 MSTORE PUSH1 0x20 ADD PUSH32 0x2D70FF78E8216BF29D58923A686D9738278B8CE2FD822E197C85B09286D15566 DUP2 MSTORE POP DUP2 PUSH1 0x0 ADD DUP2 SWAP1 MSTORE POP PUSH1 0x40 MLOAD DUP1 PUSH1 0x40 ADD PUSH1 0x40 MSTORE DUP1 PUSH1 0x40 MLOAD DUP1 PUSH1 0x40 ADD PUSH1 0x40 MSTORE DUP1 PUSH32 0x2B4DAF047ABE2E7F0B311118C1B963B63695DC0D769CEA78849604434DE055BF DUP2 MSTORE PUSH1 0x20 ADD PUSH32 0x29C13ECB6F33DBC4B3B8A02E2E255511CE4C26A8A2F299EFCC94CAF2DE4FCE00 DUP2 MSTORE POP DUP2 MSTORE PUSH1 0x20 ADD PUSH1 0x40 MLOAD DUP1 PUSH1 0x40 ADD PUSH1 0x40 MSTORE DUP1 PUSH32 0x1DA9020008DF7F549751F8A251AF3B2DC4A2AD3E0870DE54ACAEDD9FC1B47E17 DUP2 MSTORE PUSH1 0x20 ADD PUSH32 0x25EA0D7E2B29DE431B86A943DB30DBF4D98F68DF9CA8A9628D14D1591E817D90 DUP2 MSTORE POP DUP2 MSTORE POP DUP2 PUSH1 0x20 ADD DUP2 SWAP1 MSTORE POP PUSH1 0x40 MLOAD DUP1 PUSH1 0x40 ADD PUSH1 0x40 MSTORE DUP1 PUSH1 0x40 MLOAD DUP1 PUSH1 0x40 ADD PUSH1 0x40 MSTORE DUP1 PUSH32 0x11016E22AE045444F50FB80F246EC486C7E02AF09132CD38C4FCF484983E4F2 DUP2 MSTORE PUSH1 0x20 ADD PUSH31 0xE83C788C2878D1D5EBA3ED49B0D81E4C0487DEDC3E4D1C2BAAB5833785B62F DUP2 MSTORE POP DUP2 MSTORE PUSH1 0x20 ADD PUSH1 0x40 MLOAD DUP1 PUSH1 0x40 ADD PUSH1 0x40 MSTORE DUP1 PUSH32 0x5EB89E741ED5B5D611CEBF92D1ED02CD6F3311089F0D400DF7D9CED5A48FD41 DUP2 MSTORE PUSH1 0x20 ADD PUSH32 0x132A90A3B0D369CCD66E2A5BA04A935E44D8AD5DCA93A76BBA592A578130A911 DUP2 MSTORE POP DUP2 MSTORE POP DUP2 PUSH1 0x40 ADD DUP2 SWAP1 MSTORE POP PUSH1 0x40 MLOAD DUP1 PUSH1 0x40 ADD PUSH1 0x40 MSTORE DUP1 PUSH1 0x40 MLOAD DUP1 PUSH1 0x40 ADD PUSH1 0x40 MSTORE DUP1 PUSH32 0x65F6A3323A2ABFFD621FC263F348EB914904B68D5897729AE34A6B9D33F0852 DUP2 MSTORE PUSH1 0x20 ADD PUSH32 0xC3B60F59D3BD50328A04C0FF6D979199685D0526F89F6AC29D6174CE24707A2 DUP2 MSTORE POP DUP2 MSTORE PUSH1 0x20 ADD PUSH1 0x40 MLOAD DUP1 PUSH1 0x40 ADD PUSH1 0x40 MSTORE DUP1 PUSH32 0x26E7EBCE2B44EFEF6B6315938E33F0A8ECC82DBAD635C9EFA681ED85BBB59982 DUP2 MSTORE PUSH1 0x20 ADD PUSH32 0x12E0F3721230A0F38F6C9913048D5230FD2615EF3FF7F6EE4B20DFE0BDEA1A86 DUP2 MSTORE POP DUP2 MSTORE POP DUP2 PUSH1 0x60 ADD DUP2 SWAP1 MSTORE POP PUSH1 0x2 PUSH1 0x40 MLOAD SWAP1 DUP1 DUP3 MSTORE DUP1 PUSH1 0x20 MUL PUSH1 0x20 ADD DUP3 ADD PUSH1 0x40 MSTORE DUP1 ISZERO PUSH2 0x59A JUMPI DUP2 PUSH1 0x20 ADD JUMPDEST PUSH2 0x587 PUSH2 0xC83 JUMP JUMPDEST DUP2 MSTORE PUSH1 0x20 ADD SWAP1 PUSH1 0x1 SWAP1 SUB SWAP1 DUP2 PUSH2 0x57F JUMPI SWAP1 POP JUMPDEST POP DUP2 PUSH1 0x80 ADD DUP2 SWAP1 MSTORE POP PUSH1 0x40 MLOAD DUP1 PUSH1 0x40 ADD PUSH1 0x40 MSTORE DUP1 PUSH32 0x7F481A1CB7CEA7EB760D12AA4D1B61AB95A34D63783E68B0BBC9A524C388135 DUP2 MSTORE PUSH1 0x20 ADD PUSH32 0xB723281A130974C10D5BC702601B943CFB263864AFD4CE5C4C0E61D8619E132 DUP2 MSTORE POP DUP2 PUSH1 0x80 ADD MLOAD PUSH1 0x0 DUP2 MLOAD DUP2 LT PUSH2 0x609 JUMPI INVALID JUMPDEST PUSH1 0x20 MUL PUSH1 0x20 ADD ADD DUP2 SWAP1 MSTORE POP PUSH1 0x40 MLOAD DUP1 PUSH1 0x40 ADD PUSH1 0x40 MSTORE DUP1 PUSH32 0x1F86C8F7610CCED630B8F704DEF6D0756A43C68D012B98B3801C6B5649009849 DUP2 MSTORE PUSH1 0x20 ADD PUSH32 0x2B6B7F92AB24620816BDE4842E27FA635932DCECDAB53C799403F5BCA9718914 DUP2 MSTORE POP DUP2 PUSH1 0x80 ADD MLOAD PUSH1 0x1 DUP2 MLOAD DUP2 LT PUSH2 0x67A JUMPI INVALID JUMPDEST PUSH1 0x20 MUL PUSH1 0x20 ADD ADD DUP2 SWAP1 MSTORE POP SWAP1 JUMP JUMPDEST PUSH2 0x690 PUSH2 0xC69 JUMP JUMPDEST PUSH2 0x698 PUSH2 0xC9D JUMP JUMPDEST DUP4 PUSH1 0x0 ADD MLOAD DUP2 PUSH1 0x0 PUSH1 0x3 DUP2 LT PUSH2 0x6AA JUMPI INVALID JUMPDEST PUSH1 0x20 MUL ADD DUP2 DUP2 MSTORE POP POP DUP4 PUSH1 0x20 ADD MLOAD DUP2 PUSH1 0x1 PUSH1 0x3 DUP2 LT PUSH2 0x6C5 JUMPI INVALID JUMPDEST PUSH1 0x20 MUL ADD DUP2 DUP2 MSTORE POP POP DUP3 DUP2 PUSH1 0x2 PUSH1 0x3 DUP2 LT PUSH2 0x6DC JUMPI INVALID JUMPDEST PUSH1 0x20 MUL ADD DUP2 DUP2 MSTORE POP POP PUSH1 0x0 PUSH1 0x60 DUP4 PUSH1 0x80 DUP5 PUSH1 0x0 PUSH1 0x7 PUSH2 0x7D0 GAS SUB CALL SWAP1 POP DUP1 PUSH1 0x0 DUP2 EQ PUSH2 0x707 JUMPI PUSH2 0x709 JUMP JUMPDEST INVALID JUMPDEST POP DUP1 PUSH2 0x714 JUMPI PUSH1 0x0 DUP1 REVERT JUMPDEST POP POP SWAP3 SWAP2 POP POP JUMP JUMPDEST PUSH2 0x724 PUSH2 0xC69 JUMP JUMPDEST PUSH2 0x72C PUSH2 0xCBF JUMP JUMPDEST DUP4 PUSH1 0x0 ADD MLOAD DUP2 PUSH1 0x0 PUSH1 0x4 DUP2 LT PUSH2 0x73E JUMPI INVALID JUMPDEST PUSH1 0x20 MUL ADD DUP2 DUP2 MSTORE POP POP DUP4 PUSH1 0x20 ADD MLOAD DUP2 PUSH1 0x1 PUSH1 0x4 DUP2 LT PUSH2 0x759 JUMPI INVALID JUMPDEST PUSH1 0x20 MUL ADD DUP2 DUP2 MSTORE POP POP DUP3 PUSH1 0x0 ADD MLOAD DUP2 PUSH1 0x2 PUSH1 0x4 DUP2 LT PUSH2 0x774 JUMPI INVALID JUMPDEST PUSH1 0x20 MUL ADD DUP2 DUP2 MSTORE POP POP DUP3 PUSH1 0x20 ADD MLOAD DUP2 PUSH1 0x3 PUSH1 0x4 DUP2 LT PUSH2 0x78F JUMPI INVALID JUMPDEST PUSH1 0x20 MUL ADD DUP2 DUP2 MSTORE POP POP PUSH1 0x0 PUSH1 0x60 DUP4 PUSH1 0xC0 DUP5 PUSH1 0x0 PUSH1 0x6 PUSH2 0x7D0 GAS SUB CALL SWAP1 POP DUP1 PUSH1 0x0 DUP2 EQ PUSH2 0x7BA JUMPI PUSH2 0x7BC JUMP JUMPDEST INVALID JUMPDEST POP DUP1 PUSH2 0x7C7 JUMPI PUSH1 0x0 DUP1 REVERT JUMPDEST POP POP SWAP3 SWAP2 POP POP JUMP JUMPDEST PUSH2 0x7D7 PUSH2 0xC69 JUMP JUMPDEST PUSH1 0x0 PUSH32 0x30644E72E131A029B85045B68181585D97816A916871CA8D3C208C16D87CFD47 SWAP1 POP PUSH1 0x0 DUP4 PUSH1 0x0 ADD MLOAD EQ DUP1 ISZERO PUSH2 0x814 JUMPI POP PUSH1 0x0 DUP4 PUSH1 0x20 ADD MLOAD EQ JUMPDEST ISZERO PUSH2 0x838 JUMPI PUSH1 0x40 MLOAD DUP1 PUSH1 0x40 ADD PUSH1 0x40 MSTORE DUP1 PUSH1 0x0 DUP2 MSTORE PUSH1 0x20 ADD PUSH1 0x0 DUP2 MSTORE POP SWAP2 POP POP PUSH2 0x864 JUMP JUMPDEST PUSH1 0x40 MLOAD DUP1 PUSH1 0x40 ADD PUSH1 0x40 MSTORE DUP1 DUP5 PUSH1 0x0 ADD MLOAD DUP2 MSTORE PUSH1 0x20 ADD DUP3 DUP6 PUSH1 0x20 ADD MLOAD DUP2 PUSH2 0x85A JUMPI INVALID JUMPDEST MOD DUP4 SUB DUP2 MSTORE POP SWAP2 POP POP JUMPDEST SWAP2 SWAP1 POP JUMP JUMPDEST PUSH1 0x0 PUSH1 0x60 PUSH1 0x4 PUSH1 0x40 MLOAD SWAP1 DUP1 DUP3 MSTORE DUP1 PUSH1 0x20 MUL PUSH1 0x20 ADD DUP3 ADD PUSH1 0x40 MSTORE DUP1 ISZERO PUSH2 0x8A8 JUMPI DUP2 PUSH1 0x20 ADD JUMPDEST PUSH2 0x895 PUSH2 0xC83 JUMP JUMPDEST DUP2 MSTORE PUSH1 0x20 ADD SWAP1 PUSH1 0x1 SWAP1 SUB SWAP1 DUP2 PUSH2 0x88D JUMPI SWAP1 POP JUMPDEST POP SWAP1 POP PUSH1 0x60 PUSH1 0x4 PUSH1 0x40 MLOAD SWAP1 DUP1 DUP3 MSTORE DUP1 PUSH1 0x20 MUL PUSH1 0x20 ADD DUP3 ADD PUSH1 0x40 MSTORE DUP1 ISZERO PUSH2 0x8E8 JUMPI DUP2 PUSH1 0x20 ADD JUMPDEST PUSH2 0x8D5 PUSH2 0xCE1 JUMP JUMPDEST DUP2 MSTORE PUSH1 0x20 ADD SWAP1 PUSH1 0x1 SWAP1 SUB SWAP1 DUP2 PUSH2 0x8CD JUMPI SWAP1 POP JUMPDEST POP SWAP1 POP DUP11 DUP3 PUSH1 0x0 DUP2 MLOAD DUP2 LT PUSH2 0x8F9 JUMPI INVALID JUMPDEST PUSH1 0x20 MUL PUSH1 0x20 ADD ADD DUP2 SWAP1 MSTORE POP DUP9 DUP3 PUSH1 0x1 DUP2 MLOAD DUP2 LT PUSH2 0x912 JUMPI INVALID JUMPDEST PUSH1 0x20 MUL PUSH1 0x20 ADD ADD DUP2 SWAP1 MSTORE POP DUP7 DUP3 PUSH1 0x2 DUP2 MLOAD DUP2 LT PUSH2 0x92B JUMPI INVALID JUMPDEST PUSH1 0x20 MUL PUSH1 0x20 ADD ADD DUP2 SWAP1 MSTORE POP DUP5 DUP3 PUSH1 0x3 DUP2 MLOAD DUP2 LT PUSH2 0x944 JUMPI INVALID JUMPDEST PUSH1 0x20 MUL PUSH1 0x20 ADD ADD DUP2 SWAP1 MSTORE POP DUP10 DUP2 PUSH1 0x0 DUP2 MLOAD DUP2 LT PUSH2 0x95D JUMPI INVALID JUMPDEST PUSH1 0x20 MUL PUSH1 0x20 ADD ADD DUP2 SWAP1 MSTORE POP DUP8 DUP2 PUSH1 0x1 DUP2 MLOAD DUP2 LT PUSH2 0x976 JUMPI INVALID JUMPDEST PUSH1 0x20 MUL PUSH1 0x20 ADD ADD DUP2 SWAP1 MSTORE POP DUP6 DUP2 PUSH1 0x2 DUP2 MLOAD DUP2 LT PUSH2 0x98F JUMPI INVALID JUMPDEST PUSH1 0x20 MUL PUSH1 0x20 ADD ADD DUP2 SWAP1 MSTORE POP DUP4 DUP2 PUSH1 0x3 DUP2 MLOAD DUP2 LT PUSH2 0x9A8 JUMPI INVALID JUMPDEST PUSH1 0x20 MUL PUSH1 0x20 ADD ADD DUP2 SWAP1 MSTORE POP PUSH2 0x9BD DUP3 DUP3 PUSH2 0x9CD JUMP JUMPDEST SWAP3 POP POP POP SWAP9 SWAP8 POP POP POP POP POP POP POP POP JUMP JUMPDEST PUSH1 0x0 DUP2 MLOAD DUP4 MLOAD EQ PUSH2 0x9DD JUMPI PUSH1 0x0 DUP1 REVERT JUMPDEST PUSH1 0x0 DUP4 MLOAD SWAP1 POP PUSH1 0x0 PUSH1 0x6 DUP3 MUL SWAP1 POP PUSH1 0x60 DUP2 PUSH1 0x40 MLOAD SWAP1 DUP1 DUP3 MSTORE DUP1 PUSH1 0x20 MUL PUSH1 0x20 ADD DUP3 ADD PUSH1 0x40 MSTORE DUP1 ISZERO PUSH2 0xA1C JUMPI DUP2 PUSH1 0x20 ADD PUSH1 0x20 DUP3 MUL DUP1 CODESIZE DUP4 CODECOPY DUP1 DUP3 ADD SWAP2 POP POP SWAP1 POP JUMPDEST POP SWAP1 POP PUSH1 0x0 DUP1 SWAP1 POP JUMPDEST DUP4 DUP2 LT ISZERO PUSH2 0xBC2 JUMPI DUP7 DUP2 DUP2 MLOAD DUP2 LT PUSH2 0xA39 JUMPI INVALID JUMPDEST PUSH1 0x20 MUL PUSH1 0x20 ADD ADD MLOAD PUSH1 0x0 ADD MLOAD DUP3 PUSH1 0x0 PUSH1 0x6 DUP5 MUL ADD DUP2 MLOAD DUP2 LT PUSH2 0xA57 JUMPI INVALID JUMPDEST PUSH1 0x20 MUL PUSH1 0x20 ADD ADD DUP2 DUP2 MSTORE POP POP DUP7 DUP2 DUP2 MLOAD DUP2 LT PUSH2 0xA6F JUMPI INVALID JUMPDEST PUSH1 0x20 MUL PUSH1 0x20 ADD ADD MLOAD PUSH1 0x20 ADD MLOAD DUP3 PUSH1 0x1 PUSH1 0x6 DUP5 MUL ADD DUP2 MLOAD DUP2 LT PUSH2 0xA8D JUMPI INVALID JUMPDEST PUSH1 0x20 MUL PUSH1 0x20 ADD ADD DUP2 DUP2 MSTORE POP POP DUP6 DUP2 DUP2 MLOAD DUP2 LT PUSH2 0xAA5 JUMPI INVALID JUMPDEST PUSH1 0x20 MUL PUSH1 0x20 ADD ADD MLOAD PUSH1 0x0 ADD MLOAD PUSH1 0x0 PUSH1 0x2 DUP2 LT PUSH2 0xABD JUMPI INVALID JUMPDEST PUSH1 0x20 MUL ADD MLOAD DUP3 PUSH1 0x2 PUSH1 0x6 DUP5 MUL ADD DUP2 MLOAD DUP2 LT PUSH2 0xAD4 JUMPI INVALID JUMPDEST PUSH1 0x20 MUL PUSH1 0x20 ADD ADD DUP2 DUP2 MSTORE POP POP DUP6 DUP2 DUP2 MLOAD DUP2 LT PUSH2 0xAEC JUMPI INVALID JUMPDEST PUSH1 0x20 MUL PUSH1 0x20 ADD ADD MLOAD PUSH1 0x0 ADD MLOAD PUSH1 0x1 PUSH1 0x2 DUP2 LT PUSH2 0xB04 JUMPI INVALID JUMPDEST PUSH1 0x20 MUL ADD MLOAD DUP3 PUSH1 0x3 PUSH1 0x6 DUP5 MUL ADD DUP2 MLOAD DUP2 LT PUSH2 0xB1B JUMPI INVALID JUMPDEST PUSH1 0x20 MUL PUSH1 0x20 ADD ADD DUP2 DUP2 MSTORE POP POP DUP6 DUP2 DUP2 MLOAD DUP2 LT PUSH2 0xB33 JUMPI INVALID JUMPDEST PUSH1 0x20 MUL PUSH1 0x20 ADD ADD MLOAD PUSH1 0x20 ADD MLOAD PUSH1 0x0 PUSH1 0x2 DUP2 LT PUSH2 0xB4B JUMPI INVALID JUMPDEST PUSH1 0x20 MUL ADD MLOAD DUP3 PUSH1 0x4 PUSH1 0x6 DUP5 MUL ADD DUP2 MLOAD DUP2 LT PUSH2 0xB62 JUMPI INVALID JUMPDEST PUSH1 0x20 MUL PUSH1 0x20 ADD ADD DUP2 DUP2 MSTORE POP POP DUP6 DUP2 DUP2 MLOAD DUP2 LT PUSH2 0xB7A JUMPI INVALID JUMPDEST PUSH1 0x20 MUL PUSH1 0x20 ADD ADD MLOAD PUSH1 0x20 ADD MLOAD PUSH1 0x1 PUSH1 0x2 DUP2 LT PUSH2 0xB92 JUMPI INVALID JUMPDEST PUSH1 0x20 MUL ADD MLOAD DUP3 PUSH1 0x5 PUSH1 0x6 DUP5 MUL ADD DUP2 MLOAD DUP2 LT PUSH2 0xBA9 JUMPI INVALID JUMPDEST PUSH1 0x20 MUL PUSH1 0x20 ADD ADD DUP2 DUP2 MSTORE POP POP DUP1 DUP1 PUSH1 0x1 ADD SWAP2 POP POP PUSH2 0xA25 JUMP JUMPDEST POP PUSH2 0xBCB PUSH2 0xD07 JUMP JUMPDEST PUSH1 0x0 PUSH1 0x20 DUP3 PUSH1 0x20 DUP7 MUL PUSH1 0x20 DUP7 ADD PUSH1 0x0 PUSH1 0x8 PUSH2 0x7D0 GAS SUB CALL SWAP1 POP DUP1 PUSH1 0x0 DUP2 EQ PUSH2 0xBF2 JUMPI PUSH2 0xBF4 JUMP JUMPDEST INVALID JUMPDEST POP DUP1 PUSH2 0xBFF JUMPI PUSH1 0x0 DUP1 REVERT JUMPDEST PUSH1 0x0 DUP3 PUSH1 0x0 PUSH1 0x1 DUP2 LT PUSH2 0xC0E JUMPI INVALID JUMPDEST PUSH1 0x20 MUL ADD MLOAD EQ ISZERO SWAP6 POP POP POP POP POP POP SWAP3 SWAP2 POP POP JUMP JUMPDEST PUSH1 0x40 MLOAD DUP1 PUSH1 0xA0 ADD PUSH1 0x40 MSTORE DUP1 PUSH2 0xC35 PUSH2 0xC83 JUMP JUMPDEST DUP2 MSTORE PUSH1 0x20 ADD PUSH2 0xC42 PUSH2 0xCE1 JUMP JUMPDEST DUP2 MSTORE PUSH1 0x20 ADD PUSH2 0xC4F PUSH2 0xCE1 JUMP JUMPDEST DUP2 MSTORE PUSH1 0x20 ADD PUSH2 0xC5C PUSH2 0xCE1 JUMP JUMPDEST DUP2 MSTORE PUSH1 0x20 ADD PUSH1 0x60 DUP2 MSTORE POP SWAP1 JUMP JUMPDEST PUSH1 0x40 MLOAD DUP1 PUSH1 0x40 ADD PUSH1 0x40 MSTORE DUP1 PUSH1 0x0 DUP2 MSTORE PUSH1 0x20 ADD PUSH1 0x0 DUP2 MSTORE POP SWAP1 JUMP JUMPDEST PUSH1 0x40 MLOAD DUP1 PUSH1 0x40 ADD PUSH1 0x40 MSTORE DUP1 PUSH1 0x0 DUP2 MSTORE PUSH1 0x20 ADD PUSH1 0x0 DUP2 MSTORE POP SWAP1 JUMP JUMPDEST PUSH1 0x40 MLOAD DUP1 PUSH1 0x60 ADD PUSH1 0x40 MSTORE DUP1 PUSH1 0x3 SWAP1 PUSH1 0x20 DUP3 MUL DUP1 CODESIZE DUP4 CODECOPY DUP1 DUP3 ADD SWAP2 POP POP SWAP1 POP POP SWAP1 JUMP JUMPDEST PUSH1 0x40 MLOAD DUP1 PUSH1 0x80 ADD PUSH1 0x40 MSTORE DUP1 PUSH1 0x4 SWAP1 PUSH1 0x20 DUP3 MUL DUP1 CODESIZE DUP4 CODECOPY DUP1 DUP3 ADD SWAP2 POP POP SWAP1 POP POP SWAP1 JUMP JUMPDEST PUSH1 0x40 MLOAD DUP1 PUSH1 0x40 ADD PUSH1 0x40 MSTORE DUP1 PUSH2 0xCF4 PUSH2 0xD29 JUMP JUMPDEST DUP2 MSTORE PUSH1 0x20 ADD PUSH2 0xD01 PUSH2 0xD29 JUMP JUMPDEST DUP2 MSTORE POP SWAP1 JUMP JUMPDEST PUSH1 0x40 MLOAD DUP1 PUSH1 0x20 ADD PUSH1 0x40 MSTORE DUP1 PUSH1 0x1 SWAP1 PUSH1 0x20 DUP3 MUL DUP1 CODESIZE DUP4 CODECOPY DUP1 DUP3 ADD SWAP2 POP POP SWAP1 POP POP SWAP1 JUMP JUMPDEST PUSH1 0x40 MLOAD DUP1 PUSH1 0x40 ADD PUSH1 0x40 MSTORE DUP1 PUSH1 0x2 SWAP1 PUSH1 0x20 DUP3 MUL DUP1 CODESIZE DUP4 CODECOPY DUP1 DUP3 ADD SWAP2 POP POP SWAP1 POP POP SWAP1 JUMP JUMPDEST PUSH1 0x0 DUP3 PUSH1 0x1F DUP4 ADD SLT PUSH2 0xD5C JUMPI PUSH1 0x0 DUP1 REVERT JUMPDEST PUSH1 0x1 PUSH2 0xD6F PUSH2 0xD6A DUP3 PUSH2 0x105C JUMP JUMPDEST PUSH2 0x102F JUMP JUMPDEST SWAP2 POP DUP2 DUP4 DUP6 PUSH1 0x20 DUP5 MUL DUP3 ADD GT ISZERO PUSH2 0xD85 JUMPI PUSH1 0x0 DUP1 REVERT JUMPDEST PUSH1 0x0 JUMPDEST DUP4 DUP2 LT ISZERO PUSH2 0xDB5 JUMPI DUP2 PUSH2 0xD9B DUP9 DUP3 PUSH2 0xF2C JUMP JUMPDEST DUP5 MSTORE PUSH1 0x20 DUP5 ADD SWAP4 POP PUSH1 0x20 DUP4 ADD SWAP3 POP POP PUSH1 0x1 DUP2 ADD SWAP1 POP PUSH2 0xD88 JUMP JUMPDEST POP POP POP POP SWAP3 SWAP2 POP POP JUMP JUMPDEST PUSH1 0x0 DUP3 PUSH1 0x1F DUP4 ADD SLT PUSH2 0xDD0 JUMPI PUSH1 0x0 DUP1 REVERT JUMPDEST PUSH1 0x2 PUSH2 0xDE3 PUSH2 0xDDE DUP3 PUSH2 0x107E JUMP JUMPDEST PUSH2 0x102F JUMP JUMPDEST SWAP2 POP DUP2 DUP4 DUP6 PUSH1 0x20 DUP5 MUL DUP3 ADD GT ISZERO PUSH2 0xDF9 JUMPI PUSH1 0x0 DUP1 REVERT JUMPDEST PUSH1 0x0 JUMPDEST DUP4 DUP2 LT ISZERO PUSH2 0xE29 JUMPI DUP2 PUSH2 0xE0F DUP9 DUP3 PUSH2 0xF2C JUMP JUMPDEST DUP5 MSTORE PUSH1 0x20 DUP5 ADD SWAP4 POP PUSH1 0x20 DUP4 ADD SWAP3 POP POP PUSH1 0x1 DUP2 ADD SWAP1 POP PUSH2 0xDFC JUMP JUMPDEST POP POP POP POP SWAP3 SWAP2 POP POP JUMP JUMPDEST PUSH1 0x0 PUSH1 0x40 DUP3 DUP5 SUB SLT ISZERO PUSH2 0xE45 JUMPI PUSH1 0x0 DUP1 REVERT JUMPDEST PUSH2 0xE4F PUSH1 0x40 PUSH2 0x102F JUMP JUMPDEST SWAP1 POP PUSH1 0x0 PUSH2 0xE5F DUP5 DUP3 DUP6 ADD PUSH2 0xF2C JUMP JUMPDEST PUSH1 0x0 DUP4 ADD MSTORE POP PUSH1 0x20 PUSH2 0xE73 DUP5 DUP3 DUP6 ADD PUSH2 0xF2C JUMP JUMPDEST PUSH1 0x20 DUP4 ADD MSTORE POP SWAP3 SWAP2 POP POP JUMP JUMPDEST PUSH1 0x0 PUSH1 0x80 DUP3 DUP5 SUB SLT ISZERO PUSH2 0xE91 JUMPI PUSH1 0x0 DUP1 REVERT JUMPDEST PUSH2 0xE9B PUSH1 0x40 PUSH2 0x102F JUMP JUMPDEST SWAP1 POP PUSH1 0x0 PUSH2 0xEAB DUP5 DUP3 DUP6 ADD PUSH2 0xDBF JUMP JUMPDEST PUSH1 0x0 DUP4 ADD MSTORE POP PUSH1 0x40 PUSH2 0xEBF DUP5 DUP3 DUP6 ADD PUSH2 0xDBF JUMP JUMPDEST PUSH1 0x20 DUP4 ADD MSTORE POP SWAP3 SWAP2 POP POP JUMP JUMPDEST PUSH1 0x0 PUSH2 0x100 DUP3 DUP5 SUB SLT ISZERO PUSH2 0xEDE JUMPI PUSH1 0x0 DUP1 REVERT JUMPDEST PUSH2 0xEE8 PUSH1 0x60 PUSH2 0x102F JUMP JUMPDEST SWAP1 POP PUSH1 0x0 PUSH2 0xEF8 DUP5 DUP3 DUP6 ADD PUSH2 0xE33 JUMP JUMPDEST PUSH1 0x0 DUP4 ADD MSTORE POP PUSH1 0x40 PUSH2 0xF0C DUP5 DUP3 DUP6 ADD PUSH2 0xE7F JUMP JUMPDEST PUSH1 0x20 DUP4 ADD MSTORE POP PUSH1 0xC0 PUSH2 0xF20 DUP5 DUP3 DUP6 ADD PUSH2 0xE33 JUMP JUMPDEST PUSH1 0x40 DUP4 ADD MSTORE POP SWAP3 SWAP2 POP POP JUMP JUMPDEST PUSH1 0x0 DUP2 CALLDATALOAD SWAP1 POP PUSH2 0xF3B DUP2 PUSH2 0x10C7 JUMP JUMPDEST SWAP3 SWAP2 POP POP JUMP JUMPDEST PUSH1 0x0 DUP1 PUSH2 0x120 DUP4 DUP6 SUB SLT ISZERO PUSH2 0xF55 JUMPI PUSH1 0x0 DUP1 REVERT JUMPDEST PUSH1 0x0 PUSH2 0xF63 DUP6 DUP3 DUP7 ADD PUSH2 0xECB JUMP JUMPDEST SWAP3 POP POP PUSH2 0x100 PUSH2 0xF75 DUP6 DUP3 DUP7 ADD PUSH2 0xD4B JUMP JUMPDEST SWAP2 POP POP SWAP3 POP SWAP3 SWAP1 POP JUMP JUMPDEST PUSH2 0xF88 DUP2 PUSH2 0x10B1 JUMP JUMPDEST DUP3 MSTORE POP POP JUMP JUMPDEST PUSH1 0x0 PUSH2 0xF9B PUSH1 0x22 DUP4 PUSH2 0x10A0 JUMP JUMPDEST SWAP2 POP PUSH32 0x5472616E73616374696F6E207375636365737366756C6C792076657269666965 PUSH1 0x0 DUP4 ADD MSTORE PUSH32 0x642E000000000000000000000000000000000000000000000000000000000000 PUSH1 0x20 DUP4 ADD MSTORE PUSH1 0x40 DUP3 ADD SWAP1 POP SWAP2 SWAP1 POP JUMP JUMPDEST PUSH1 0x0 PUSH1 0x20 DUP3 ADD SWAP1 POP PUSH2 0x1009 PUSH1 0x0 DUP4 ADD DUP5 PUSH2 0xF7F JUMP JUMPDEST SWAP3 SWAP2 POP POP JUMP JUMPDEST PUSH1 0x0 PUSH1 0x20 DUP3 ADD SWAP1 POP DUP2 DUP2 SUB PUSH1 0x0 DUP4 ADD MSTORE PUSH2 0x1028 DUP2 PUSH2 0xF8E JUMP JUMPDEST SWAP1 POP SWAP2 SWAP1 POP JUMP JUMPDEST PUSH1 0x0 PUSH1 0x40 MLOAD SWAP1 POP DUP2 DUP2 ADD DUP2 DUP2 LT PUSH8 0xFFFFFFFFFFFFFFFF DUP3 GT OR ISZERO PUSH2 0x1052 JUMPI PUSH1 0x0 DUP1 REVERT JUMPDEST DUP1 PUSH1 0x40 MSTORE POP SWAP2 SWAP1 POP JUMP JUMPDEST PUSH1 0x0 PUSH8 0xFFFFFFFFFFFFFFFF DUP3 GT ISZERO PUSH2 0x1073 JUMPI PUSH1 0x0 DUP1 REVERT JUMPDEST PUSH1 0x20 DUP3 MUL SWAP1 POP SWAP2 SWAP1 POP JUMP JUMPDEST PUSH1 0x0 PUSH8 0xFFFFFFFFFFFFFFFF DUP3 GT ISZERO PUSH2 0x1095 JUMPI PUSH1 0x0 DUP1 REVERT JUMPDEST PUSH1 0x20 DUP3 MUL SWAP1 POP SWAP2 SWAP1 POP JUMP JUMPDEST PUSH1 0x0 DUP3 DUP3 MSTORE PUSH1 0x20 DUP3 ADD SWAP1 POP SWAP3 SWAP2 POP POP JUMP JUMPDEST PUSH1 0x0 DUP2 ISZERO ISZERO SWAP1 POP SWAP2 SWAP1 POP JUMP JUMPDEST PUSH1 0x0 DUP2 SWAP1 POP SWAP2 SWAP1 POP JUMP JUMPDEST PUSH2 0x10D0 DUP2 PUSH2 0x10BD JUMP JUMPDEST DUP2 EQ PUSH2 0x10DB JUMPI PUSH1 0x0 DUP1 REVERT JUMPDEST POP JUMP INVALID LOG2 PUSH5 0x6970667358 0x22 SLT KECCAK256 0xA8 PUSH25 0x86BEF889EC55F6057BB2C2CBFD8A963D98075F84DD8D519EF3 PUSH26 0xDA60520264736F6C634300060100330000000000000000000000 "},"gasEstimates":{"creation":{"codeDepositCost":"874400","executionCost":"909","totalCost":"875309"},"external":{"verifyTx(((uint256,uint256),(uint256[2],uint256[2]),(uint256,uint256)),uint256[1])":"infinite"},"internal":{"verify(uint256[] memory,struct Verifier.Proof memory)":"infinite","verifyingKey()":"infinite"}},"methodIdentifiers":{"verifyTx(((uint256,uint256),(uint256[2],uint256[2]),(uint256,uint256)),uint256[1])":"f48d7729"}},"storageLayout":{"storage":[],"types":null},"userdoc":{"methods":{}}}